:020000040800F2
:10000000880600202902000841050008390500087B
:100010003D0500085D0400085709000800000000C5
:10002000000000000000000000000000850500083E
:10003000610400080000000043050008F506000800
:10004000430200084302000843020008430200087C
:10005000430200084302000843020008430200086C
:10006000430200084302000843020008430200085C
:10007000430200084302000843020008430200084C
:10008000430200084302000843020008430200083C
:10009000430200084302000843020008430200082C
:1000A000430200084302000843020008430200081C
:1000B000430200084302000843020008430200080C
:1000C00043020008430200084302000843020008FC
:1000D00043020008550900084302000843020008D3
:1000E00043020008430200084302000843020008DC
:1000F00043020008430200084302000843020008CC
:1001000043020008430200084302000843020008BB
:1001100043020008430200084302000843020008AB
:10012000430200084302000843020008430200089B
:10013000430200084302000843020008430200088B
:10014000430200084302000843020008430200087B
:10015000430200084302000843020008430200086B
:10016000430200084302000843020008430200085B
:10017000430200084302000843020008430200084B
:10018000430200084302000800F002F800F03CF8C7
:100190000AA090E8000C82448344AAF10107DA45E2
:1001A00001D100F031F8AFF2090EBAE80F0013F0F8
:1001B000010F18BFFB1A43F001031847B8090000EC
:1001C000D8090000103A24BF78C878C1FAD852077D
:1001D00024BF30C830C144BF04680C6070470000C1
:1001E0000023002400250026103A28BF78C1FBD840
:1001F000520728BF30C148BF0B6070471FB500F0E1
:10020000A4FC1FBD10B510BD00F033F81146FFF778
:10021000F5FF00F02BFC00F051F803B4FFF7F2FFFC
:1002200003BC00F09AFB00000948804709480047DA
:10023000FEE7FEE7FEE7FEE7FEE7FEE7FEE7FEE796
:10024000FEE7FEE704480549054A064B70470000F3
:10025000F9060008890100088800002088060020AF
:10026000880200208802002070477047704770475E
:100270007047754600F02CF8AE46050069465346B7
:1002800020F00700854618B020B5FFF7DBFFBDE87A
:1002900020404FF000064FF000074FF000084FF0ED
:1002A000000B21F00701AC46ACE8C009ACE8C0097E
:1002B000ACE8C009ACE8C0098D46704710B50446EB
:1002C000AFF300802046BDE81040FFF7A6BF000056
:1002D00000487047280000202DE9F04391B0074600
:1002E0000C4615461E46584B0FCBCDE90F23CDE9E2
:1002F0000D01554B10330FCBCDE90B23CDE909018F
:1003000000200590069007900890019002900390BD
:100310000490002F01DD012000E000204B4908601F
:10032000002C01DD012000E0002049490860002D7B
:1003300001DD012000E00020444908310860002E62
:1003400001DD012000E000204149083108604149F9
:100350000998C1F8A0023E49091F0A9808603B4964
:10036000091D0B9808603A49091D0C980860384629
:1003700000F0E4FB0190204600F0E0FB02902846EC
:1003800000F0DCFB0390304600F0D8FB04904FF007
:100390000008C14649E00198002802DA00200990CF
:1003A0000D900298002802DA00200A900E9003981F
:1003B000002802DA00200B900F900498002802DA3F
:1003C00000200C9010902149091F099808602249CB
:1003D0000A98C1F884021D49091D0B9808601E493E
:1003E0000C98C1F88C02DC2000F0F4FA1749091FC0
:1003F000059808601649091F069808601349091DE9
:100400000798086014490898C1F88C02DC2000F0B5
:10041000E1FA0198401E01900298401E0290039854
:10042000401E03900498401E04900D980028B2D1FD
:100430000E980028AFD10F980028ACD11098002852
:10044000A9D111B0BDE8F083540B0008A482414249
:1004500088024242008041420000424200BFFEE763
:100460007047F0B50A4600210023002400BF3DE09C
:10047000012505FA01F3156805EA03049C4234D10D
:1004800005684F000326BE40B543056015794E0050
:10049000B5400668354305601579012D02D0157900
:1004A000022D16D185684F000326BE40B5438560F6
:1004B00055794E00B540866835438560456801260C
:1004C0008E40B5434560456896798E40B6B2354357
:1004D0004560C5684F000326BE40B543C560D57969
:1004E0004E00B540C6683543C560491C1029BFD3CE
:1004F000F0BDF0B5002300244D07ED0E02FA05F320
:10050000CE1000F1200555F826504E07F70E0F26A5
:10051000BE40B543CF1000F1200646F82750CE105C
:1005200000F1200555F8265045EA0304CE1000F1ED
:10053000200545F82640F0BD00BFFEE700BFFEE7FE
:100540007047704729B1064A12680243044B1A608B
:1005500004E0034A12688243014B1A6070470000AE
:100560003038024029B1064A12680243044B1A602F
:1005700004E0034A12688243014B1A60704700008E
:1005800040380240704700000CB5002001900090F8
:100590003448006840F480303249086000BF314878
:1005A000006800F4003000900198401C0190009811
:1005B00018B90198B0F5A04FF1D12A48006800F4AD
:1005C000003010B10120009001E000200090009860
:1005D000012846D123484030006840F0805021492E
:1005E000403108602048006840F440401E490860DF
:1005F0001C48083000681B4908310860084600683C
:1006000040F4004008600846006840F4A0500860CC
:100610001648091F0860081F006840F08070091F15
:10062000086000BF0F48006800F000700028F9D093
:1006300040F205700E4908600A480830006820F052
:1006400003000849083108600846006840F00200CD
:10065000086000BF03480830006800F00C0008285C
:10066000F8D10CBD0038024000700040085440072B
:10067000003C02401CB5044601211020FFF762FF38
:1006800001210820FFF75EFF4FF470600090012009
:100690008DF8040000208DF8060003208DF8050079
:1006A00001208DF8070069460548FFF7DAFE1F2094
:1006B000009069460348FFF7D4FE034804601CBD60
:1006C000000C02400010024080024242042808D17F
:1006D0004FF0E021096941F004014FF0E02211617F
:1006E00007E04FF0E021096921F004014FF0E0221A
:1006F000116170477047000010B51548006840F45C
:100700007000134908601348006840F00100114967
:10071000086000200F49083108600E4800680E4943
:1007200008400C4908600D48091D0860081F006852
:1007300020F48020091F0860002006490C31086061
:10074000FFF722FF4FF0006001498039086010BDBB
:1007500088ED00E000380240FFFFF6FE1030002474
:1007600030B58BB004460D4601210420FFF7FAFE98
:1007700001210820FFF7E6FE02220F212148FFF7A2
:10078000B8FE4FF40040099002208DF828000320A5
:100790008DF8290000208DF82A0001208DF82B000B
:1007A00009A91848FFF75DFEA8B2ADF818000020AF
:1007B000ADF81A000794ADF8200006A9124800F021
:1007C00087F86020ADF804000120ADF8060040F67F
:1007D000C41003900020ADF81000ADF8140001A97A
:1007E000094800F02BF80821074800F063F80121C0
:1007F000054800F00BF80121034800F013F80BB096
:1008000030BD0000000C02400008004021B1028809
:1008100042F08002028004E002884FF67F731A40A3
:100820000280704721B1028842F00102028004E098
:1008300002884FF6FE731A400280704770B500229E
:1008400000230024058C4EF6FF7635400584038C8A
:100850008488828B48F6FF752A404FF6FF452A4070
:100860000D884FF6FF7606EA05252A434DF6FF75FB
:100870002B408D8906EA05352B434D8806EA053560
:100880002B430A4DA84202D0094DA84208D14BF68D
:10089000FF752C400D8A4FF6FF7606EA85152C432E
:1008A000848082838D680564038470BD00000140EC
:1008B000000401400A460021818B4FF2FF7319406A
:1008C0004FF6FF7303EA0223194381837047000048
:1008D00000220288184B98420ED0184B98420BD039
:1008E000B0F1804F08D0164B984205D0154B984276
:1008F00002D0154B984204D14FF68F731A404B88A3
:100900001A43124B984207D0114B984204D04FF62D
:10091000FF431A400B891A4302804B68C3620B885D
:100920000385054B984202D0044B984201D18B7A43
:1009300003860123838270470000014000040140C8
:100940000004004000080040000C0040001000407F
:1009500000140040704700BFFEE700BF7047000072
:1009600010B504466FF00400FFF7B0FEE11704EB8A
:100970005171C1F3C701074A11701046007800EBAE
:100980004001C1EBC0104FF6FF7101EAC0000249FF
:10099000088010BD240000202600002070B5044609
:1009A0004FF4077094FBF0F0C6B24FF4077094FB5D
:1009B000F0F100FB114085B205E04FF4077000F044
:1009C0002FF8701EC6B2002EF7D115B1284600F0E0
:1009D00027F870BD0146114A12784A434FF0E023D0
:1009E0005A6100229A611A46126942F001021A61A4
:1009F00000BF4FF0E022106900F001021AB100F4CC
:100A00008032002AF5D04FF0E022126922F0010274
:100A10004FF0E0231A6100229A6170472400002001
:100A20000146114A12884A434FF0E0235A610022DE
:100A30009A611A46126942F001021A6100BF4FF032
:100A4000E022106900F001021AB100F48032002A9D
:100A5000F5D04FF0E022126922F001024FF0E023BE
:100A60001A6100229A61704726000020A820FFF733
:100A700077FF532144F61F60FFF772FE0020FFF757
:100A8000F9FD58E02C48006843422B480268006892
:100A9000414229480068FFF71FFC4FF4FA70FFF746
:100AA0007DFF2548036800684242234801680068CA
:100AB0004042FFF711FC4FF4FA70FFF76FFF1E483A
:100AC000006843421C48006842421B48006841429B
:100AD000194800684042FFF7FFFB4FF4FA70FFF738
:100AE0005DFF15480368026801680068FFF7F4FBC2
:100AF0004FF4FA70FFF752FF0F480368026800686E
:100B000041420D4800684042FFF7E6FB4FF4FA709F
:100B1000FFF744FF08480068434207480068424224
:100B2000054801680068FFF7D7FB4FF4FA70FFF73C
:100B300035FF00BFFEE7A5E71C00002001460029A5
:100B400001DB084670474842FCE74FF04070E1EE99
:100B5000100A7047010000000100000001000000C1
:100B60000100000001000000010000000100000081
:100B700001000000940B0008000000202800000085
:100B8000C4010008BC0B000828000020600600001B
:100B9000E0010008000070C200007042000070C256
:100BA00000007042000000000000000000007042E1
:0C0BB000401F0000701700000000000053
:040000050800018965
:00000001FF
