:020000040800F2
:1000000038090020550200083D250008B7210008E6
:1000100025220008C1200008433600080000000027
:10002000000000000000000000000000D12B0008CC
:10003000C5200008000000000D2A0008412D00081E
:100040006F0200086F0200086F0200086F020008CC
:100050006F0200086F0200086F0200086F020008BC
:100060006F0200086F0200086F0200086F020008AC
:100070006F0200086F0200086F0200086F0200089C
:100080006F0200086F0200086F0200086F0200088C
:100090006F0200086F0200086F0200086F0200087C
:1000A0006F0200086F0200086F0200086F0200086C
:1000B0006F0200086F0200086F0200086F0200085C
:1000C0006F0200086F0200086F0200086F0200084C
:1000D0006F020008F53100086F0200086F02000887
:1000E0006F0200086F0200086F0200086F0200082C
:1000F0006F0200086F0200086F0200086F0200081C
:100100006F0200086F0200086F0200086F0200080B
:100110006F0200086F0200086F0200086F020008FB
:100120006F0200086F0200086F0200086F020008EB
:100130006F0200086F0200086F0200086F020008DB
:100140006F0200086F0200086F0200086F020008CB
:100150006F0200086F0200086F0200086F020008BB
:100160006F0200086F0200086F0200086F020008AB
:100170006F0200086F0200086F0200086F0200089B
:100180006F0200086F02000800F002F800F052F859
:100190000AA090E8000C82448344AAF10107DA45E2
:1001A00001D100F047F8AFF2090EBAE80F0013F0E2
:1001B000010F18BFFB1A43F0010318473067000016
:1001C00050670000103A24BF78C878C1FAD85207A7
:1001D00024BF30C830C144BF04680C6070470000C1
:1001E0000023002400250026103A28BF78C1FBD840
:1001F000520728BF30C148BF0B607047662905F021
:100200000386732900F0CC83002070471FB505F0EA
:10021000EEFD00F071FC04000020002105F012F852
:10022000401C60600020002104F0F6FFE0601FBD6C
:1002300010B510BD00F0D8FD1146FFF7E7FF04F040
:100240007DFC01F081F803B4FFF7F2FF03BC04F07A
:1002500025F800000948804709480047FEE7FEE707
:10026000FEE7FEE7FEE7FEE7FEE7FEE7FEE7FEE766
:1002700004480549054A064B70470000452D000813
:1002800089010008380300203809002038050020C3
:1002900038050020704700000FB4044910B503AAC8
:1002A000029800F081FB10BC5DF814FB44000020B4
:1002B00070B50C460546012A05D02878800600D581
:1002C000EA69002302E0012305E05B1C934202D2AD
:1002D000E05C0028F9D1A869E618C01AA861286A6C
:1002E000184428622846AFF3008004E0D5E90121D4
:1002F00014F8010B9047B442F8D32846AFF30080BE
:1003000070BD00002DE9F05F894604464FF0000AF9
:10031000DFF874B1FB44C0F820A02046E1688847AC
:10032000002874D0252806D0D4E901219047206AFE
:10033000401C2062F1E700265F462046E1688847BE
:100340002028054607DB312D05D2781910F8200C3E
:1003500008B10643F1E7B00701D526F00406C4F85A
:100360001CA00027C4F818A02A2D09D0284603F0A5
:100370008EFF38B304EB8708303DC8F8185019E0F9
:1003800059F8041B204604EB87029161E168884715
:10039000012F054618D1E069002820DA26F0200652
:1003A0001DE0D8F8180000EB800005EB4000303865
:1003B000C8F818002046E1688847054603F067FF43
:1003C0000028EED1012F0AD02E2D08D12046E16859
:1003D00088477F1C0546022F46F02006C4DBA06933
:1003E000002803DA404246F00106A061F00701D080
:1003F00026F010066C2D0BD0682D09D04C2D39D06D
:100400006A2D35D0742D35D07A2D33D016E038E0F2
:10041000E1682F4620468847B842054609D16C2F2F
:1004200026D04FF48060E1680643204688470546A1
:1004300004E06C2F1AD04FF4807006430DB3A5F181
:100440004100192802D8203546F400664A4629465C
:10045000204626604E46FFF7D1FE80B101280BD022
:10046000F61D26F0070000F1080956E74020E4E7F2
:100470008020D8E70020D6E706F104094DE728469A
:1004800052E7206ABDE8F09F0864000070B5064698
:1004900000F03EF80468054630460A22002100F0CC
:1004A000E7FA2C6070BD401ECAB210F8011F8A42E4
:1004B00002D00029F9D1002070474FF0000200B5AA
:1004C000134694469646203922BFA0E80C50A0E877
:1004D0000C50B1F12001BFF4F7AF090728BFA0E825
:1004E0000C5048BF0CC05DF804EB890028BF40F8F1
:1004F000042B08BF704748BF20F8022B11F0804F33
:1005000018BF00F8012B704770477047704770475D
:1005100000487047D802002010B5FFF7F9FF0068C7
:1005200010BD10B50446FFF7F3FF046010BD70471F
:100530002DE9FF4F0C461E464FF0FF378BB0D2E936
:100540000001DDF860800A908A46C1F30A5505B9BA
:100550003D46002108464FF00000BAF1000F00F4BC
:10056000400005DA00EB80004FF4400101EA500042
:100570004FEA9059B9F1010F00DDB9460A9850EAE7
:100580004A000ED044F61050A5F2FF3545432F1413
:10059000B8F1000F1ED07542291E1EDDC9F1000200
:1005A0001CE0B8F1010F4FF0000001D0302103E052
:1005B000F24305E02154401CB042FBDB30460022F0
:1005C000002121540B99C1F80880C1E900200FB027
:1005D000BDE8F08FBD1B6D1CDEE74A4600DA6942BC
:1005E00006A800F08BFB06AB93E8070003AB83E89B
:1005F000070050460A9901F02EF98DE80700A0F592
:1006000000501F3800900398002D0ADD42F21F01B0
:100610004A460844002303A90390684601F0DAFB28
:1006200009E0A0F500504A461F38002303A90390B3
:10063000684601F0F9FB8DE807000004000C03D0C8
:100640004FF0FF30410800E01046B8F1000F03D032
:100650000022009215461EE0751E05D400F050FAE7
:10066000303262556D1EF9D5B3460122084302D0DF
:1006700000227F1C04E02078302801D100227F1E58
:10068000002A099784D01DE0112D07DA00F038FA0E
:10069000303262556D1C50EA0102F5D1084302D098
:1006A0000098C8B10EE00021681E05E0235C625C82
:1006B00063542254401E491C8142F7DBAB46A81B01
:1006C000401E0990002004F80B000B98099AC0F80E
:1006D0000880C0E9002B7AE711264FF0000857E7A1
:1006E0002DE9F04F88460446D21D22F0070191B053
:1006F000D1E90001CDE90A0102F0A5FF02460B98FD
:10070000C00F01D02D2007E02068810701D52B20E4
:1007100002E0202101EAC000032A099001D0072A43
:1007200005DB03464146204600F038FA0BE120780D
:10073000800601D5E06900E00620B8F1650F81462A
:1007400006D0B8F1660F18D0B8F1670F70D131E05C
:100750000020B9F1110F009001DB112301E009F134
:1007600001030AAA01A90CA8FFF7E2FEDDE90C705B
:10077000002609F10105834647E001204B46009021
:100780004FF000470AAA01A90CA8FFF7D1FEDDE946
:100790000DB00C995D46002610B909F101000D1845
:1007A000B9EB050003D4C0F1FF3609F10105A5EB53
:1007B00009002BE0B9F1010F01DA4FF00109002027
:1007C000B9F1110F0090484601DD112300E0034606
:1007D0000AAA01A90CA8FFF7ABFEDDE90C704D4693
:1007E00000268346207800070AD4AB4500DA5D4630
:1007F00001A8012D04DD411911F8011C302907D091
:100800004F4502DA17F1040F04DA012082460FE0A7
:100810006D1EEEE7002F02DCED1B3E4403E0781C6A
:10082000A84200DD7D1CB81B00F1010A4FF0004713
:100830002078000703D4AA4501DB4FF0FF3A0021DE
:10084000B7F1004F0DF143088DF8431024D002207A
:100850002B23002F01DA7F422D230A21021EA0F153
:10086000010000DC5FB197FBF1FC97FBF1F201FBAB
:100870001C7C17460CF1300C08F801CDEEE7A8F10E
:10088000010003702188090501D5452100E065219B
:10089000A0F1010800F8011C09980FA9A1EB0807B5
:1008A000FF1D00B10120411901EBEA70A169384434
:1008B000081A401EA0612078C00602D42046AFF37B
:1008C0000080099828B1D4E901219047206A401C92
:1008D00020622078C00622D52046AFF300801EE0BB
:1008E000002E04DBB34502DD01A8805D00E030206E
:1008F000D4E901219047206A401C2062761CAAF1AD
:1009000001005FEA000A0AD100F0F6F8C068016849
:10091000405CD4E901219047206A401C2062281ED7
:10092000A5F10105DCDC07E0D4E9012118F8010B91
:100930009047206A401C2062381EA7F10107F3DCB3
:100940002046AFF30080032011B041E601694A1C44
:1009500002610878704700B58FB0CDE90131002100
:10096000059105497944CDE9031011466846FFF722
:10097000C9FC0FB000BD0000E5FFFFFF10B54369E3
:1009800013B1AFF3008001E0FFF792FC012010BD2E
:10099000127800F124010A7000224A700122EDE76A
:1009A00011684FF0FF32E9E7074B70B50D467B4405
:1009B000FFF7D1FF0446284600F012FA10B14FF0BD
:1009C000FF3070BD204670BDAB4000000FB4002367
:1009D00000B589B00CA900910B99CB60214B7B44E9
:1009E0000693214B7B44079304236FF00042CDE92B
:1009F00001321E4A7A446B4608920246002005F0F6
:100A000065FA09B05DF814FB70B506464FF0FF308B
:100A100015460C46324686B00091CDE90101694683
:100A20000020049004A8FFF7D1FF02460498211883
:100A300025B108B1084600E0204628600498002847
:100A40000DD0002A02DD0098884208D03246081BEB
:100A500069460094CDE9010404A8FFF7B7FF06B08A
:100A600070BD00003B020000530200009301000033
:100A70002DE9F04791460F4680460446002614F8BB
:100A8000015B2DB100F030F80068405DC007F6D181
:100A90002B2D02D02D2D18D0641E4A4639462046F3
:100AA00000F0DCF827B13968A14201D1C7F8008015
:100AB0004FF0020471050BD54042002803DDFFF71B
:100AC00027FD0460A007BDE8F08746F48066E4E7F0
:100AD0000028F8DAFFF71CFD04606FF00040F2E731
:100AE00000487047D802002010B500F005F8001D3E
:100AF00010BD00BF5147000000487047F8020020B9
:100B000030B5B0F10A024FEA900E71F100034EEADF
:100B1000817EB0EB0E0061EB91014FEA101E4EEAB0
:100B2000017E10EB0E0041EB11114FEA102E4EEA40
:100B3000016E10EB0E0041EB11214FEA104E4EEA10
:100B4000014E10EB0E0041EB1141401841F1000144
:100B50004FEAD00040EA41704FEAD10110EB800526
:100B60004FEA810444EA907444EB01046D1944EBAC
:100B70000404521BA3414FF0000348BF0A3200D5C2
:100B800030BD401C41F1000130BD10B50446FFF7F7
:100B9000ABFF0068005D00F0010010BD2DE9F041E1
:100BA0001F46044603260168072A01F4006004DB9F
:100BB00008B116A505E016A503E008B115A500E0EB
:100BC00015A521F010002060A069C01EA0610FB122
:100BD000401EA0612046AFF300804FB1D4E901214F
:100BE00038469047206A401C2062C01C206206E004
:100BF000206AFAE7D4E9012115F8010B9047761E27
:100C0000F8D22046AFF30080BDE8F0814E414E009F
:100C10006E616E00494E4600696E6600426842B1E0
:100C2000016811F8013B23B1521EC0E900121846B9
:100C300070470121C160881E704742685AB1C3687D
:100C4000016843B983688B4205D0491E521CC0E934
:100C50000012002070474FF0FF3070472DE9F05F21
:100C6000824615468B4600270AF10104B9460078F2
:100C7000302801D09DB113E014F8010B012778282A
:100C800003D0582801D045B10AE00DB1102D07D18D
:100C9000002714F8010B102502E0082500E00A25C2
:100CA0000026B0460EE005FB080005FB06F1012713
:100CB0001FFA80F801EB1046B6F5803F00D3B94625
:100CC00014F8010B294600F0B4F80028EBDABBF168
:100CD000000F05D00FB1641E00E05446CBF8004071
:100CE000B9F1000F06D0FFF713FC02210160C81E06
:100CF000BDE8F09F48EA0640FAE700002DE9F0471A
:100D0000814616468AB0354878440DC88DE80D00F6
:100D100032487844801C03AC0DC884E80D0041F6CD
:100D20009B300844372190FBF1F290FBF1F5A5F1DF
:100D3000800501FB12041B3C02D56442012000E047
:100D40000020DFF898A080460027FA44AAF1BE0AE6
:100D50000EE0E0070AD03246684607EB4701012360
:100D60000AEB810101F060F88DE8070064107F1C38
:100D7000002CEED1194F7F44AE3F19E0E80715D0A3
:100D800007EB04100DF1180A90E80E008AE80E0037
:100D9000C068F04201D1981908903246012306A993
:100DA00003A801F041F803AB83E807006D10641C51
:100DB000002DE3D14FF0010332466946B8F1000F30
:100DC00003A802D001F006F801E001F02DF8C9E90E
:100DD0000001C9F808200AB0BDE8F087C85B000030
:100DE000007B00F0800070477546FFF779FEAE4645
:100DF00005006946534620F00700854618B020B527
:100E0000FFF736FABDE820404FF000064FF000072C
:100E10004FF000084FF0000B21F00701AC46ACE8A2
:100E2000C009ACE8C009ACE8C009ACE8C0098D460F
:100E300070473A2800D2303820F02002412A01D3EE
:100E4000A2F13700884201D34FF0FF307047000015
:100E50002DE9FF4F06468BB00878FF2806D0491CC5
:100E60002D2805D000244FF0000908E000200CE0F8
:100E70000124F8E709EB8903491C00EB43090878D2
:100E8000FF28F7D114B1C9F1000081461078002580
:100E90002C46AA4629462D2801D02B2804D1521CC5
:100EA0002D2813D0002082468B461078FF280FD0C3
:100EB0004FF0000C0A21521CA5FB017804FB0181B4
:100EC00005FB0C11C5194BEB0104EEE70120EAE725
:100ED000002108464FF00000BAF1000F02D000EBED
:100EE00080004008C0F38157012F01DD4FF0FF372C
:100EF0000E9955EA040009EB01080BD04FF00209E6
:100F000018F5FA7F16DA4FEACA70002F706008DD14
:100F1000012007E04FEACA70C6E900B00FB0BDE893
:100F2000F08F00203060FFF7F3FAC0F8009018212E
:100F3000084616E0B8F5FA7F18DD002F02DAF74808
:100F4000784401E0F6487844D0E90010C6E9001082
:100F500040EACA707060FFF7DBFAC0F80090142115
:100F600008460FB0BDE8F04F04F04BBF0021084623
:100F70004FF00000B8F10001099002DAC7F1000259
:100F800000E03A4601DAC8F1000106A8FFF7B6FE14
:100F900006AB93E8070003AB83E8070044F23E008A
:100FA0005BEA04010090584604D144F21E012C462D
:100FB0005D460091210C0904014306D100992404E7
:100FC00044EA15442D041039009104F07F41014397
:100FD00006D10099240244EA15642D0208390091D3
:100FE00004F07041014306D10099240144EA1574CC
:100FF0002D01091F009104F04041014306D10099E1
:10100000A40044EA9574AD00891E009104F00041EB
:10101000084304D100986D196441401E00904FF0C0
:1010200001033A466846B8F1000FCDE9014503A92E
:1010300002DD00F00EFF01E000F0E1FEBAF1000F6A
:1010400004460D4601D084F00044002108464FF0CC
:101050000000099940F2FF77484010F00C0F07D1CB
:1010600024F00040284303D0C4F30A50B84212D100
:10107000FFF74EFAC0F80090C4F30A50B8420AD104
:10108000A8487844D0E90010C6E9001004F00041F7
:101090000843706042E7C6E900543FE72DE9FF4F7F
:1010A0001F464FF0000A4FF0FF38454691B0D7E990
:1010B0000146CDF83CA0FFF71FFDC0680168405C09
:1010C0001090B96912986D1C8847396A8146884723
:1010D0000028F6D1B9F1FF3F0AD0002E24F4D064E5
:1010E00011DDB9F12B0F08D0B9F12D0F0BD102E0B2
:1010F000404615B013E744F48064B96912986D1C3A
:101100008847761E8146600504A901D52D2000E0A0
:101110002B20002E01F1010B0DF130088DF810008D
:101120003FDDB9F1690F08D0B9F1490F05D0B9F128
:101130006E0F02D0B9F14E0F1CD13B4601A80095AD
:1011400080E85002DDE912126FF0020004F0C2FEE6
:10115000C11CCED10EE0B96912986D1C884781463A
:101160001398761E44F4007405600F98401C002EFE
:101170000F9016DDB9F1300FEDD0B9F1780F02D034
:10118000B9F1580F0DD10F9801280AD13B46CDE98E
:101190000054DDE91212001F029604F099FEC11CF2
:1011A000A7D1109989453ED144F0800406E01399F7
:1011B000681CAAF1010A44F400740860B9696D1C46
:1011C0001298761E884730288146F0D02BE010997F
:1011D000894505D1200603D4761E44F0800418E02A
:1011E000484603F054F808B3761E0DF123018B45F1
:1011F00044F4007408D2A9F130000BF8010B20066A
:1012000007D5AAF1010003E0200602D40AF101008B
:101210008246A00502D51399681C0860B969129826
:101220006D1C88478146002ED1DC53E0002E51DD35
:10123000B9F1650F02D0B9F1450F4BD1A00549D5E1
:10124000B9696D1C1298761E24F440748847002EEC
:1012500081460CDD2B2804D0B9F12D0F07D144F4C1
:101260008074B96912986D1C8847761E8146E00526
:1012700001D52D2100E02B2108F8011BCDF80080BD
:1012800021E0761E0DF13901884544F400740CD23A
:10129000A9F1300010F0FF0088F8000002D1009999
:1012A000884509D908F1010806E0E00501D51E4886
:1012B00001E042F20F708246B96912986D1C8847AE
:1012C000814613980560002E04DD484602F0DFFFDA
:1012D0000028D6D1F96912988847FF2053468BF829
:1012E000000088F8000000200A900B9004AA0CA9C6
:1012F0000AA8FFF7ADFDA00502D46FF00100F8E6E3
:1013000014F0240F12D0E0071CD13868DDE90A126E
:10131000031D3B600068C0E9001213E0D0590000D3
:10132000C259000086580000F1D8FFFF0AA968469C
:1013300002F09AFFE00705D13868009A011D396074
:10134000006802602846D4E610B50446AFF300807A
:101350002046BDE81040FEF776BF00004FF0013C8C
:1013600050F8042B51F8043B9A4221D1A2EB0C0314
:10137000934313EACC1317D150F8042B51F8043BD4
:101380009A4215D1A2EB0C03934313EACC130BD171
:1013900050F8042B51F8043B9A4209D1A2EB0C03FC
:1013A000934313EACC13DBD04FF00000704700BF2B
:1013B000D01A01BAB1FA81F101F0180122FA01F054
:1013C000CB40C1F12001DBB2C0B2C01A2CFA01F34C
:1013D000D11A914311EAC311E6D170472DE9FF4FAD
:1013E0001F464FF03C0987B04FF00042DDE9141072
:1013F00001F10108DDF858A002EA405003900020F6
:1014000005908346054604460490B969461E08982F
:101410008847AAF1010A0290BAF1000F3BDD029859
:101420002E2815D01021FFF704FD00282EDB4FF0E9
:10143000010B0599014317D0B9F1000F0BDB4A46A8
:10144000C11700F0F5F905430C43A9F1040905E0C3
:10145000012004900BE008B145F001050120059042
:10146000049820B9361D02E0049800B1361FB9690E
:10147000089808F101088847BBF1000FAAF1010A9A
:101480000290C9D00999C1F80080C5E70298702878
:1014900008D0502806D0F96908988847BBF1000F9A
:1014A00014D04FE0002002900120BBF1000F049007
:1014B00009D0B969089808F101088847AAF101091B
:1014C000B9F1000F07DCF969089888476FF001004F
:1014D0000BB0BDE8F08F2B2804D02D280CD14FF095
:1014E000FF300490B969089808F101088847A9F10C
:1014F0000109B9F1000FE6DD411CE4D00A21FFF734
:1015000098FC0028DFDB029908F1010801EB81015A
:1015100000EB41000290B969089888470A21FFF75B
:1015200088FC099AA9F10109B9F1000FC2F80080FD
:1015300001DD0028E7DAF9690898884704990298DC
:1015400000FB016655EA040004D004F040410900A4
:1015500002D006E0039898E0A40044EA9574AD0038
:10156000B61E04F00041080002D16D196441761ED8
:10157000159810F0240F03D04FF00B095C4803E0DE
:101580004FF028096FF07D008246564507DAAAEB36
:1015900006018944B9F1410F01DD4FF041090120F5
:1015A0000021A9F1010200F043F9024628400B4650
:1015B0002140084301D0012100E00021501E02918A
:1015C00043F1FF3128402140084301D0012000E0D1
:1015D00000200299834651EA0B014FD000210846B2
:1015E0004FF00000039900F4400039B100EB800097
:1015F0004FF4400100EBD07001EA60008015012833
:1016000002DD4FF0FF3000E013D0401C36D00298CE
:1016100060B3BBF1000F0CD14A460120002100F05D
:1016200007F928402140084301D0012000E00020B4
:10163000E0B101204A46002100F0FAF803464019C3
:101640000A4661412D1A8C4111D3B9F1400F09DDD1
:10165000159810F0240F02D0AAF1340603E0AAF185
:10166000170600E0761C00254FF0004406E05B1EE4
:1016700042F1FF3220EA030521EA0204CAF1010027
:10168000B04206DA1B4903980843019000200090FD
:101690000EE0039AC4F3D321E80A0A43164940EA4C
:1016A00044500A433146CDE90002684602F0E5FDA8
:1016B000159810F0240F0BD01598C00715D1386875
:1016C000DDE90012031D3B600068C0E900120CE078
:1016D00002A8694602F0C8FD1598C00705D1386810
:1016E000029A011D3960006802604046F0E6000081
:1016F00002FCFFFF0000F07F0000F03F2DE9FF4FEC
:1017000092461D4685B04FF00041DDE9124BDDE900
:1017100014727F1E01EA4B50414940F0FF4940EAF4
:101720000108002122F020004928049102D04E280F
:1017300028D04CE03BA0012607C88DE80700A96926
:101740000698641C88477F1E014606D41DF80600D3
:1017500018B121F0200181420BD0E9690698884731
:10176000032E34D0082E32D06FF0010009B0BDE84E
:10177000F08F761C032E01D0082EE0D1601CCAF831
:101780000000DCE7A9690698641C88477F1E2AD4FC
:1017900020F02000412826D1A9690698641C8847BA
:1017A0007F1E20D420F020004E281CD1A969069865
:1017B000641C88477F1E48F4002849F48009CAF851
:1017C000004001D4282806D0E969069888475FEAD6
:1017D000CB7012D022E0A9690698641C88477F1E4E
:1017E00001D4002803DAE96906988847BCE729286C
:1017F000F1D1641CCAF80040E9E71BF0240F07D0C0
:1018000028680499031D2B600068C0E9001805E0F2
:101810002868021D2A600068C0F800902046A5E7ED
:101820000000F07F494E46494E49545900000000DF
:10183000B2F120030AD5C2F1200301FA02F120FA25
:1018400003F300FA02F041EA0301704700FA03F1E2
:101850004FF0000070475FEA400C08BF91F0000FA6
:101860004FEA8C234FEAC12243EA51514FEA1C5000
:1018700018BF00F5F0404FEA300018BF41F00041BA
:101880005FEA6C5C00F02980BCF1FF3F08BF40F0CC
:1018900080407047130C06BF12044FF0100C4FF03D
:1018A000000C130E04BF12020CF1080C130F04BF3E
:1018B00012010CF1040C930F04BF92000CF1020C06
:1018C000D30F04BF52000CF1010C11464FF000027F
:1018D000A0F11F00A0EB0C00704711F0004F08BFF3
:1018E000704731F000413FF4D5AF0B0C06BF09043F
:1018F0004FF0100C4FF0000C0B0E04BF09020CF15E
:10190000080C0B0F04BF09010CF1040C8B0F04BF72
:1019100089000CF1020CCB0F04BF49000CF1010C43
:10192000CCF12003A0EB0C0022FA03F302FA0CF234
:1019300041EA030100F10100704720F07F4C80EA8A
:10194000030023F07F47ACEB070303F57C5300F063
:10195000004003F1FF032DE980494FEA154B09B41C
:101960004FEA144325EA0B4E24EA03480FF20426FB
:1019700006EB132749083E785FEA320203FB06674D
:10198000C7F5000707FB06F64FEA54374FEAD6467D
:1019900006F1020607FB066CCCF1005C4FEA1C471F
:1019A0002CEA074C07FB06F40CFB06F504EB154686
:1019B0004FEA961634BF00204FF000404FEAD1376F
:1019C00006FB07FC4FEA1C4C0CFB0BF7D21B03FB7E
:1019D0000CF761EB07010CFB0EF7B0EB074072EB65
:1019E00017420CFB08F734BFA2EB0742B2EB0742E9
:1019F00061EB17414FEA0C444FEA910706FB07FCE5
:101A00004FEA1C4C0CFB0BF7B0EBC74072EB5732A4
:101A100003FB0CF734BFA2EBC742B2EBC74261EB4A
:101A200057310CFB0EF7B0EBC70072EB57720CFB93
:101A300008F734BFA2EBC702B2EBC70261EB5771E4
:101A4000039F4FEA816141EA921104EBCC044FEA13
:101A5000D1374FEA826206FB07FC42EA90124FEA56
:101A600080604FEA1C4C0CFB0BF7D21B03FB0CF7FE
:101A700061EB07010CFB0EF7B0EB074072EB17426E
:101A80000CFB08F734BFA2EB0742B2EB074261EB55
:101A900017414FEA8C554FEA910704EB9C2406FB53
:101AA00007FC4FEA1C4C0CFB0BF7B0EBC74072EB8A
:101AB000573203FB0CF734BFA2EBC742B2EBC7426D
:101AC00061EB57310CFB0EF7B0EBC70072EB5772AE
:101AD0000CFB08F734BFA2EBC702B2EBC70261EB05
:101AE000577115EB4C254FEA816141EA92114FEA9B
:101AF00082624FEAD13742EA901206FB07FC44F1BA
:101B000000044FEA80604FEA1C4C0CFB0BF7D21B21
:101B100003FB0CF761EB07010CFB0EF7B0EB074082
:101B200072EB17420CFB08F734BFA2EB0742B2EB93
:101B3000074261EB174115EB1C154FEA813141EA71
:101B400092414FEA823242EA90424FEA80304FEAB5
:101B50000C7644F1000448EA03434EEA0B484FF088
:101B6000000EB2EB080C71EB030724BF6246394646
:101B70004EEB0E0E4FF0000B0018524149414BEB5B
:101B80000B0BB2EB080C71EB03077BF1000B24BFCE
:101B9000624639464EEB0E0E4FF0000B00185241D4
:101BA00049414BEB0B0BB2EB080C71EB03077BF1DC
:101BB000000B24BF624639464EEB0E0E51EA020777
:101BC00018BF46F0010616EB0E7655F1000254F1EF
:101BD000000103D5BDE88901BDE80088BDE88901A1
:101BE000BDE80048B619524141EB0101A3F10103E0
:101BF000704780807F7E7D7C7B7A7978777676757A
:101C00007473727171706F6E6E6D6C6C6B6A6A69F1
:101C10006868676666656464636362616160605F8B
:101C20005F5E5E5D5D5C5C5B5B5A5A595958585704
:101C3000575656555555545453535252525151506C
:101C400050504F4F4F4E4E4D4D4D4C4C4C4B4B4BBF
:101C50004A4A4A4949494848484747474746464605
:101C60004545454444444443434343424242424140
:101C70004141000046EA0646A3F570534FEA164676
:101C800046EA42564FEAD22242EA415210B54FEAA2
:101C9000D121A3F1010300F02FF820F0004000F162
:101CA000020C00F0004701EB00501146BCF5006F3C
:101CB00040EA070000D210BDBAF1000F0AD01CB5EF
:101CC00003B44FF004004FF004014FF000000FBCCC
:101CD000BDE810404FF00001BBF1010FB9BF04484F
:101CE0004FF0FF310348002140EA070010BD00BF5C
:101CF000FFFFEF7F0000F07F002B9C4630D4770081
:101D00002BD01CB54FEA370703B44FF010004FF04B
:101D10001001BAF1000F06D0BCF1000FDCBF40F09B
:101D2000080040F008014FF000000FBCBDE8104073
:101D30000BF1010BBBF1010F08BF5FEA170722BFD0
:101D400012F1010211F101014FF0004143F10003D2
:101D500000F0004043EA00007047F9D35708D0E78D
:101D600046EA064613F1400F4FEA16461FDD13F10F
:101D7000200FDFBF16430A46002120335B42BED04E
:101D8000C3F1200746EA064602FA07F74FEA16466D
:101D900046EA0706C3F1200722FA03F201FA07F721
:101DA00021FA03F14FF0000342EA0702A7E746EAEF
:101DB000020646EA06464FEA164646EA0106BCBF58
:101DC00046EA0646360C4FF000034FF000024FF093
:101DD000000194E72DE9804C9A46934670B491E84F
:101DE000380007C831EA400C48BF34EA430C03D539
:101DF000FFF7A3FDFFF780FFF0BCBDE8008C2DE9E5
:101E0000804C9A46934670B491E8380007C831EA8E
:101E1000400C48BF34EA430C03D5FFF78EFDFFF7B3
:101E200029FFF0BCBDE8008C2DE9804C9A46934612
:101E300070B491E8380007C810F0804F08BF13F065
:101E4000804F03D100F01AF8FFF756FFF0BCBDE851
:101E5000008C2DE9804C9A46934670B491E8380086
:101E600007C810F0804F08BF13F0804F03D100F077
:101E700005F8FFF7FFFEF0BCBDE8008C20F07F47BF
:101E800080EA030023F07F4C07EB0C03A3F57C539F
:101E900000F00040A3F1FE0392F0000F00F0B380C9
:101EA00095F0000F00F077802DE901494FEA1140CD
:101EB0004FEA144621EA004800FB06FC24EA0647E4
:101EC00008FB06F607FB08F800FB07F718EB0648C7
:101ED0004CEB164C4FEA124B18EB07484FEA1546ED
:101EE0004CEB174022EA0B4E0BFB06FC25EA06479B
:101EF0000EFB06F607FB0EFE0BFB07F71EEB064E6E
:101F00004CEB164C4FF000061EEB074E4CEB174BFC
:101F100018EB0B0840F1000018EB0E0B58EB000813
:101F200040F100008F1A4FF000013CBFC943661B0F
:101F300014BFB5EB040C00213CBFC943F61B4FEAAC
:101F400017444EEA8E0E27EA04454FEA1C4704FB6D
:101F500007622CEA074C05FB07F70CFB05F604FBB0
:101F60000CFC16EB074642EB174216EB0C4642EB15
:101F70001C421BEB060658EB0202414146EA9E0654
:101F800001D5BDE80189B619524141EB0101A3F128
:101F90000103BDE801894FEA14454FEA114724EADD
:101FA000054621EA074C05FB07F406FB07F70CFB87
:101FB00006F105FB0CFC11EB074144EB17444FEA1B
:101FC000124711EB0C4144EB1C4422EA074C05FB81
:101FD00007F206FB07F70CFB06F605FB0CFC16EBFD
:101FE000074642EB174216EB0C4642EB1C456A18BB
:101FF00054F1000148BF7047B619524141EB01014D
:10200000A3F10103704795F0000F37D04FEA11425A
:102010004FEA144721EA024624EA074C02FB07F183
:1020200006FB07F70CFB06F402FB0CFC14EB074461
:1020300041EB17414FEA154714EB0C4441EB1C41AF
:1020400025EA074C02FB07F506FB07F70CFB06F633
:1020500002FB0CFC16EB074645EB174516EB0C464E
:1020600045EB1C42121951F1000148BF7047B619E7
:10207000524141EB0101A3F1010370474FEA1445BE
:102080004FEA114724EA054621EA074C05FB07F110
:1020900006FB07F70CFB06F24FF0000605FB0CFCF5
:1020A00012EB074241EB174112EB0C4251EB1C4182
:1020B00048BF7047921841EB0101A3F1010370473B
:1020C00000BFFEE77047F0B50A4600210023002458
:1020D00000BF3DE0012505FA01F3156805EA030498
:1020E0009C4234D105684F000326BE40B5430560CD
:1020F00015794E00B5400668354305601579012D08
:1021000002D01579022D16D185684F000326BE40F6
:10211000B543856055794E00B54086683543856086
:10212000456801268E40B5434560456896798E40E6
:10213000B6B235434560C5684F000326BE40B5437F
:10214000C560D5794E00B540C6683543C560491CA9
:102150001029BFD3F0BDF0B5002300244D07ED0ECC
:1021600002FA05F3CE1000F1200555F826504E076F
:10217000F70E0F26BE40B543CF1000F1200646F8FB
:102180002750CE1000F1200555F8265045EA0304EB
:10219000CE1000F1200545F82640F0BD0246002093
:1021A00013690B400BB1012000E000207047418310
:1021B00070470183704700BFFEE700001CB5012196
:1021C000084600F041FC2A20009000208DF8040011
:1021D00003208DF8050000208DF8070069460248AD
:1021E000FFF771FF1CBD0000000002401CB501217B
:1021F000082000F029FC4FF40040009001208DF8E9
:10220000040000208DF8060003208DF80500012051
:102210008DF8070069460248FFF755FF1CBD000016
:10222000000C024000BFFEE72DE9F0472DED068BC4
:10223000B0EE408A002600270024A046A1460025D3
:10224000B5EEC08AF1EE10FA18DD9FED520A524841
:1022500080ED000A9FED510A514880ED000A9FED84
:102260004D0A504880ED000A00204F4908604F4950
:10227000C1F8900201204E49086035E0B5EEC08AF1
:10228000F1EE10FA18D29FED430A434880ED000AA0
:102290009FED480A424880ED000A9FED3E0A414802
:1022A00080ED000A0120404908604049C1F89002D1
:1022B00000203F49086017E09FED360A364880ED60
:1022C000000A9FED340A364880ED000A9FED310A7E
:1022D000344880ED000A0120334908603349C1F8D1
:1022E00090020020324908609FED2A0AF0EE408AF1
:1022F00018EE100A03F00AFD41EC1A0BB0EE4A0A80
:10230000F0EE6A0A01F0B4FAB0EE409AF0EE609A8C
:1023100051EC190B02F0B8FF08EE900A01260127D4
:1023200001244FF0000A27E02148001F04604FF409
:10233000E16001F0EFFF2048C0F8A0524FF4E160E7
:1023400001F0E8FF1948C0F88462C0F88C721848A0
:10235000001F04604FF4E16001F0DCFF1348C0F897
:102360008482C0F88C921448C0F8A0524FF4E16007
:1023700001F0D0FF0AF1010A00EE10AAB8EEC00A7F
:10238000B4EEE80AF1EE10FACED3BDEC068BBDE850
:10239000F0870000000000007C00002000004842A0
:1023A0008000002084000020880242420000424257
:1023B000A4824142000048C2008041422DE9F0471A
:1023C0002DED068BB0EE408A002400250026002764
:1023D000A046A146B5EEC08AF1EE10FA19DD9FEDD8
:1023E0004D0A4D4880ED000A9FED4C0A4C4880EDA7
:1023F000000A9FED480A4B4880ED000A01204A4937
:10240000086000204949C1F890020120484908604D
:1024100037E0B5EEC08AF1EE10FA19D29FED3D0A11
:102420003D4880ED000A9FED430A3D4880ED000ADB
:102430009FED380A3B4880ED000A00203A490860C9
:1024400001203A49C1F8900200203949086018E09B
:102450009FED300A304880ED000A9FED2E0A30488B
:1024600080ED000A9FED2B0A2E4880ED000A002027
:102470002D49086001202D49C1F8900200202C4907
:1024800008609FED240AF0EE408A18EE100A03F06F
:102490003DFC41EC1A0BB0EE4A0AF0EE6A0A01F07C
:1024A000E7F9B0EE409AF0EE609A51EC190B02F0A9
:1024B000EBFE08EE900A0124012500264FF0000AE9
:1024C0001AE01948001F04601848C0F88C521848D8
:1024D000001F06604FF4E16001F01CFF1348C0F8D4
:1024E0008472C0F88C821448C0F8A0924FF4E16066
:1024F00001F010FF0AF1010A00EE10AAB8EEC00ABE
:10250000B4EEE80AF1EE10FADBD3BDEC068BBDE8C1
:10251000F0870000000000007C000020000048421E
:1025200080000020840000208802424200004242D5
:10253000A4824142000048C200804142704700002E
:1025400070B5002100230F22C4781CB3174C2468F7
:1025500004F4E064C4F5E064C4F30721C1F10404A9
:10256000E3B20A4144789C40E1B2847814402143AC
:102570000C07210E0E4C05786155047804F01F05F8
:102580000124AC4005786D11AD0005F1E025C5F8DA
:10259000004109E0047804F01F050124AC40054D1A
:1025A0000678761145F8264070BD00000CED00E07D
:1025B00000E400E080E100E002490143024A1160CA
:1025C000704700000000FA050CED00E070B5002433
:1025D00018E004F1B000002100F0B3F90021084632
:1025E00000F0AFF90021102000F0ABF9002505E064
:1025F0000121002000F0A5F9681CC5B2802DF7DB91
:10260000601CC4B2082CE4DB70BD10B5002106E0EC
:10261000062200BF131EA2F10102FBD1491C814218
:10262000F6D310BD10B580210A48FFF7C2FD402146
:102630000848FFF7BEFD0120FFF7E7FF80210548AE
:10264000FFF7B5FD0120FFF7E0FF40210148FFF74C
:10265000AEFD10BD0000024010B540210A48FFF752
:10266000A6FD80210848FFF7A2FD0120FFF7CDFF5E
:1026700040210548FFF79DFD80210348FFF799FDA4
:102680000120FFF7C2FF10BD0000024010B54FF45B
:102690007A7480211A48FFF78CFD1948006820F4ED
:1026A0004040174908600846006808600120FFF7AD
:1026B000ACFF40211248FFF77CFD0120FFF7A5FF8A
:1026C00007E0601E80B2041E03D0FFF7C5FFFF20A5
:1026D00010BD80210A48FFF761FD0028F1D140219B
:1026E0000748FFF764FD0648006820F440400449AD
:1026F00008600846006840F4804008600020E7E772
:10270000000002401CB504460121084600F09CF977
:10271000C020009003208DF8050000208DF80600F1
:1027200001208DF8040069464348FFF7CCFC4021A6
:102730004148FFF73EFD80213F48FFF73AFDC820A2
:10274000FFF763FF0021AE2000F0FBF800210846F0
:1027500000F0F7F80021102000F0F3F800214020ED
:1027600000F0EFF80021B02000F0EBF8002181200C
:1027700000F0E7F80021FF2000F0E3F844B9002161
:10278000A02000F0DEF80021C02000F0DAF807E019
:102790000021A12000F0D5F80021C82000F0D1F8D8
:1027A0000021A62000F0CDF80021A82000F0C9F8F3
:1027B00000213F2000F0C5F80021D32000F0C1F82F
:1027C0000021084600F0BDF80021D52000F0B9F83E
:1027D0000021802000F0B5F80021D82000F0B1F8E9
:1027E0000021052000F0ADF80021D92000F0A9F863
:1027F0000021F12000F0A5F80021DA2000F0A1F876
:102800000021122000F09DF80021DB2000F099F853
:102810000021302000F095F800218D2000F091F883
:102820000021142000F08DF80021AF2000F089F87D
:10283000FFF7CCFE1CBD00000000024070B504464E
:102840000D4605F1B000002100F07BF8102141EAAF
:102850001410002100F075F804F00F00002100F0C2
:1028600070F870BD2DE9F04707460E469046994630
:1028700000250024A8F12000C5B27F2F02DD00272B
:10288000B01CC6B2B9F1100F24D131463846FFF75B
:10289000D5FF002408E004EB0511194A505C012122
:1028A00000F04FF8601CC4B2082CF4DB701CC1B2FD
:1028B0003846FFF7C3FF002409E004EB0511083197
:1028C0000F4A505C012100F03CF8601CC4B2082C97
:1028D000F3DB12E031463846FFF7B0FF00240AE090
:1028E00005EB4501074A02EB4101085D012100F0BB
:1028F00028F8601CC4B2062CF2DBBDE8F0870000AB
:1029000030610008085F00082DE9F04104460F46D9
:102910001546984600260FE0AA5D434639462046F4
:10292000FFF7A0FF04F10800C4B2782C02DD0024F8
:10293000B81CC7B2701CC6B2A85D0028ECD1BDE8B7
:10294000F08170B504460D461DB1E0B200F048F8C4
:1029500002E0E0B200F02EF870BD000070B5044651
:1029600040211348FFF723FC00251DE004F0800000
:1029700020B180210E48FFF71CFC03E080210C48A9
:10298000FFF715FC6006040E0120FFF73EFE402114
:102990000748FFF70EFC0120FFF737FE40210448EF
:1029A000FFF705FC681CC5B2082DDFDB70BD000019
:1029B0000000024010B50446FFF734FE7820FFF710
:1029C000CDFFFFF763FE0020FFF7C8FFFFF75EFEB5
:1029D0002046FFF7C3FFFFF759FEFFF73DFE10BD8E
:1029E00010B50446FFF71EFE7820FFF7B7FFFFF78C
:1029F0004DFE4020FFF7B2FFFFF748FE2046FFF7ED
:102A0000ADFFFFF743FEFFF727FE10BD7047000044
:102A100010B540F2DC51044800F0A7FB4FF47A7087
:102A200001F05CFC10BD00000008004010B540F64D
:102A3000C411044800F099FB4FF47A7001F04EFC89
:102A400010BD00000008004029B1064A1268024388
:102A5000044B1A6004E0034A12688243014B1A6077
:102A6000704700003038024029B1064A126802431C
:102A7000044B1A6004E0034A12688243014B1A6057
:102A8000704700004038024029B1064A12680243EC
:102A9000044B1A6004E0034A12688243014B1A6037
:102AA000704700002038024029B1064A12680243EC
:102AB000044B1A6004E0034A12688243014B1A6017
:102AC000704700004438024029B1064A12680243A8
:102AD000044B1A6004E0034A12688243014B1A60F7
:102AE0007047000024380240F0B500210022002485
:102AF000022500260223324F3F6807F00C0121B166
:102B0000042905D0082937D105E02E4F076036E0AB
:102B10002D4F076033E02A4F3F1F3F68C7F38056B1
:102B2000274F3F1F3F6807F03F036EB1264FB7FBAB
:102B3000F3F7DFF88CC0ACF1040CDCF800C0CCF388
:102B4000881C07FB0CF40CE01E4FB7FBF3F7DFF813
:102B500070C0ACF1040CDCF800C0CCF3881C07FB9F
:102B60000CF4174F3F1F3F68C7F301477F1C7D00E0
:102B7000B4FBF5F7076002E0124F076000BF00BF2B
:102B80000F4F3F6807F0F0010909104F7A5C0768A2
:102B9000D74047600A4F3F6807F4E051890A0B4F5E
:102BA0007A5C4768D7408760054F3F6807F460410B
:102BB000490B064F7A5C4768D740C760F0BD0000FC
:102BC000083802400024F40000127A0000000020BF
:102BD000704700000CB50020019000903448006858
:102BE00040F480303249086000BF3148006800F48A
:102BF000003000900198401C0190009818B901988D
:102C0000B0F5A04FF1D12A48006800F4003010B1AF
:102C10000120009001E0002000900098012846D19A
:102C200023484030006840F080502149403108601E
:102C30002048006840F440401E4908601C480830A5
:102C400000681B49083108600846006840F40040ED
:102C500008600846006840F4A05008601648091F44
:102C60000860081F006840F08070091F086000BFFE
:102C70000F48006800F000700028F9D040F205709D
:102C80000E4908600A480830006820F0030008492F
:102C9000083108600846006840F00200086000BF84
:102CA00003480830006800F00C000828F8D10CBD7B
:102CB000003802400070004008544007003C0240C9
:102CC0001CB5044601211020FFF7BEFE012108209B
:102CD000FFF7BAFE4FF47060009001208DF80400F9
:102CE00000208DF8060003208DF8050001208DF8E6
:102CF000070069460548FFF7E6F91F20009069467E
:102D00000348FFF7E0F9034804601CBD000C0240D3
:102D10000010024080024242042808D14FF0E02116
:102D2000096941F004014FF0E022116107E04FF022
:102D3000E021096921F004014FF0E02211617047A0
:102D40007047000010B51548006840F47000134942
:102D500008601348006840F0010011490860002035
:102D60000F49083108600E4800680E4908400C49B8
:102D700008600D48091D0860081F006820F48020C5
:102D8000091F0860002006490C310860FFF722FF88
:102D90004FF0006001498039086010BD88ED00E007
:102DA00000380240FFFFF6FE1030002430B58BB033
:102DB00004460D4601210420FFF756FE012108209C
:102DC000FFF742FE02220C213448FFF7C4F9022229
:102DD0000D213248FFF7BFF902220E212F48FFF7DD
:102DE000BAF902220F212D48FFF7B5F94FF47040D0
:102DF000099002208DF8280003208DF8290000207A
:102E00008DF82A0001208DF82B0009A92348FFF72F
:102E10005AF9A8B2ADF818000020ADF81A000794CE
:102E2000ADF8200006A91E4800F0A2F96020ADF818
:102E300004000120ADF8060040F6C4100390002005
:102E4000ADF81000ADF8140001A9154800F042F8E3
:102E50000821134800F07CF801A9114800F082F81D
:102E600008210F4800F0D0F801A90D4800F0DAF869
:102E700008210B4800F026F901A9094800F02CF9B7
:102E80000821074800F064F90121054800F00AF81C
:102E90000121034800F012F80BB030BD000C0240D5
:102EA0000008004021B1028842F08002028004E064
:102EB00002884FF67F731A400280704721B1028862
:102EC00042F00102028004E002884FF6FE731A40CD
:102ED0000280704770B5002400220023058C4FF655
:102EE000FE7635400584028C8388048B4FF68F75FF
:102EF0002C40B51E2C400D882C43751E2A408D8910
:102F00002A434D882A43104DA84202D00F4DA842B3
:102F100013D14FF6F7752A40CD892A434FF6FB753A
:102F20002A408D882A434FF6FF652B404FF6FF5508
:102F30002B400D8A2B434D8A2B43838004838D685D
:102F40004563028470BD00000000014000040140A0
:102F50000A460021018B4FF6F77319401143018394
:102F60007047000070B5002400220023058C4FF646
:102F7000EF7635400584028C8388048B48F6FF7514
:102F80002C404FF6FF452C400D884FF6FF7606EAA1
:102F900005252C434FF6DF752A408D8906EA051575
:102FA0002A434D8806EA05152A43154DA84202D04A
:102FB000144DA8421DD14FF67F752A40CD894FF69A
:102FC000FF7606EA05152A434FF6BF752A408D881D
:102FD00006EA05152A434FF6FF352B404FF2FF75E1
:102FE0002B400D8A06EA85052B434D8A06EA8505A6
:102FF0002B43838004838D688563028470BD000049
:1030000000000140000401400A460021018B4FF2FC
:10301000FF7319404FF6FF7303EA0223194301833C
:103020007047000070B5002400220023058C4FF685
:10303000FF6635400584028C8388848B4FF68F753C
:103040002C404FF6FC752C400D882C434FF6FF5555
:103050002A408D894FF6FF7606EA05252A434D88DA
:1030600006EA05252A43154DA84202D0144DA84270
:103070001DD14FF2FF752A40CD894FF6FF7606EA43
:1030800005252A434FF6FF352A408D8806EA052597
:103090002A434EF6FF752B404DF6FF752B400D8AE7
:1030A00006EA05152B434D8A06EA05152B43838056
:1030B00084838D68C563028470BD000000000140F8
:1030C000000401400A460021818B4FF6F773194036
:1030D000114381837047000070B500220023002453
:1030E000058C4EF6FF7635400584038C8488828BF0
:1030F00048F6FF752A404FF6FF452A400D884FF6E7
:10310000FF7606EA05252A434DF6FF752B408D898B
:1031100006EA05352B434D8806EA05352B430A4D53
:10312000A84202D0094DA84208D14BF6FF752C40A9
:103130000D8A4FF6FF7606EA85152C43848082833C
:103140008D680564038470BD0000014000040140E7
:103150000A460021818B4FF2FF7319404FF6FF732F
:1031600003EA02231943818370470164704700001A
:1031700000220288184B98420ED0184B98420BD070
:10318000B0F1804F08D0164B984205D0154B9842AD
:1031900002D0154B984204D14FF68F731A404B88DA
:1031A0001A43124B984207D0114B984204D04FF665
:1031B000FF431A400B891A4302804B68C3620B8895
:1031C0000385054B984202D0044B984201D18B7A7B
:1031D0000386012383827047000001400004014000
:1031E0000004004000080040000C004000100040B7
:1031F0000014004010B584E040F225514A4800F028
:10320000C2F8494800F018FA4849087008460078A2
:103210000A2803D0084600780D281FD144480068CA
:10322000002812DD00204349414A12688854424870
:10323000007810B141A0FDF72FF83D4801683D48E6
:1032400001F0B6FD00203A49086000203E490870B0
:103250003E4908703EA0FDF71FF852E03A4800785A
:1032600010B93A48007838B130480078292848D158
:1032700000203549087044E02C480078202840DDC3
:103280002A4800782F283CD028480078282803D1E5
:1032900001202D49087034E0244800783B2803D1F0
:1032A00001202A4908702CE021480068B0F5FF7F12
:1032B00008DD28A0FCF7F0FF00202349087023490F
:1032C00008701EE019480078612810DB1748007864
:1032D0007A280CDC154800782038C1B214480268FE
:1032E0000068401C124B18601248815409E00F48D6
:1032F00001780F4802680068401C0D4B18600D48AB
:10330000815440F22551084800F0DDF800287FF490
:1033100073AF0821044800F0C9F8012803D108213F
:10332000014800F027F810BD0010014038000020CF
:103330003C0000209C000020140000207265637691
:103340003A25730A000000004000002041000020E0
:103350006F6B0A004552524F52202D206C696E65EA
:10336000427566666572206F766572666C6F770A65
:103370000000000001F40072B2F5007F00D100BF30
:10338000CA430280704710B50022002340F66A1439
:10339000A14200D100BF0A1201249440A3B2DC4331
:1033A000048010BD21B1828942F40052828104E080
:1033B00082894DF6FF731A408281704710B504462A
:1033C0003248844208D101211020FFF77DFB002103
:1033D0001020FFF779FB57E02D48844209D10121E5
:1033E0004804FFF751FB00214FF40030FFF74CFB7E
:1033F0004AE02848844209D101218804FFF744FBB0
:1034000000214FF48020FFF73FFB3DE0224884423B
:1034100009D10121C804FFF737FB00214FF4002038
:10342000FFF732FB30E01D48844209D10121080535
:10343000FFF72AFB00214FF48010FFF725FB23E064
:103440001748844208D101212020FFF73DFB0021CD
:103450002020FFF739FB17E01248844209D10121EF
:103460008807FFF711FB00214FF08040FFF70CFBAE
:103470000AE00D48844207D101214005FFF704FB13
:1034800000216005FFF700FB10BD000000100140A7
:103490000044004000480040004C00400050004004
:1034A0000014014000780040007C004002460020EB
:1034B000B1F5007F00D100BF13880B400BB1012094
:1034C00000E00020704770B502460024002300256C
:1034D000002040F66A16B14200D100BFC1F3421588
:1034E00001F01F03012606FA03F3012D02D196898C
:1034F000334006E0022D02D1168A334001E0968A5D
:1035000033400C12012606FA04F41688344013B135
:103510000CB1012000E0002070BDF0B5034600248E
:1035200000260025002040F66A17B94200D100BFEE
:103530001846C1F3421401F01F06012707FA06F5E9
:10354000012C01D10C3004E0022C01D1103000E03C
:1035500014301AB107682F43076002E00768AF43D1
:103560000760F0BD2DE9FF4705460E460024A14641
:1035700000BFA046B08900B100BF2C8A24F440549B
:10358000F08804432C82AC8941F20C608443B088FB
:1035900031890843718908430443AC81AC8A24F41F
:1035A0004074B0890443AC826846FFF79DFA204816
:1035B000854202D01F48854202D1DDF80C9001E01F
:1035C000DDF80890A88900F4004040B109EBC9007B
:1035D00000EB091031684900B0FBF1F707E009EB97
:1035E000C90000EB091031688900B0FBF1F76420D5
:1035F000B7FBF0F004012009642101FB1078A889D1
:1036000000F4004040B1322000EBC800B0FBF1F004
:1036100000F00700044308E0322000EB08106421AA
:10362000B0FBF1F000F00F0004432C81BDE8FF87F0
:10363000001001400014014001468888C0F30800D2
:10364000704700BFFEE703B401984100009850EABC
:10365000C12018BF04204A0D18BF40F0010040F2FD
:10366000FF72B2EB515F08BF40F00200012808BFB3
:10367000052002B07047000030B52DED048B81B0FD
:10368000B0EE408AF0EE608A6A4651EC180B01F009
:10369000F3F900989FED329B7E300090002821DCEA
:1036A00053EC192B51EC180B02F034F81AD000210E
:1036B00040F608004FF00000044651EC180B01F0F2
:1036C000E3FD08EE100A40F6080004EA00014FF09E
:1036D0000000B5EEC08AF1EE10FA04BF0220FCF73C
:1036E00020FF2DE00098FF2830DB002108464FF036
:1036F000000000F4400553EC192B51EC180B02F0BC
:10370000D9F98CBF002401240220FCF70AFF9FEDA9
:10371000168A4DB1002C0CBF4FF400004FF480000E
:10372000A84218BF9FED118A042108464FF00000FF
:10373000002C01BFB1EE480A01B0BDEC048B30BDD6
:10374000B0EE480A01B0BDEC048B30BD51EC180B53
:1037500001F09AFD01B000EE100ABDEC048B30BD03
:1037600000000000000000000000807FFFFF7F7F5E
:1037700030B583B00446FCF7CFFE9FED090B05463C
:103780008DED000B002221466846FDF73DF92846E5
:10379000FCF7C7FE9DED000B03B030BD000000003C
:1037A000000000000000000010B52F499FED2C1B09
:1037B0002DED020B84B0059820F000408842D8BF60
:1037C0009DED040B2DDD2949884209D1049840B9AB
:1037D0004FF00100FCF7A5FE00F016FD06B010BD8D
:1037E00005DB9DED040B00F003FD06B010BD68463F
:1037F0009DED040B00F014F910F0030004BF9DEDE3
:10380000021B9DED000B0CD001280ED09DED021B7C
:103810009DED000B022817D0012000F051FC06B0EE
:1038200010BD00F019FB06B010BD9DED021B9DED13
:10383000000B012000F044FC51EC100B01F018FDCE
:1038400006B041EC100B10BD00F006FB51EC100B64
:1038500001F00EFD06B041EC100B10BD00000000A1
:103860000000000000000000FB21E93F0000F07FA5
:103870002DED020B019820F0004001909DED000B12
:1038800002B070470000000030B540F2FF742DED2B
:10389000048BF0EE608A18EE901A85B0B0EE408A84
:1038A0009FED2B9B05468DED008B34EA115147D0DF
:1038B00053EC192B51EC180B01F02CFF40D02A4689
:1038C00051EC180B02F0D4FA41EC180B18EE900AE8
:1038D0008DED008B34EA10501CD053EC192B51ECB9
:1038E000180B01F017FF2BD10220FCF71AFE00F095
:1038F000ABFC10EE901A18EE900A8DED020B8DEDD8
:10390000008B61F31E0003909DED020B05B0BDEC32
:10391000048B30BD0220FCF704FE00F085FC10EEA5
:10392000901A18EE900A8DED020B8DED008B61F36D
:103930001E0003909DED020B05B0BDEC048B30BD65
:1039400005B0B0EE480AF0EE680ABDEC048B30BD5D
:10395000000000000000000010B52F499FED2C1B57
:103960002DED020B84B0059820F000408842DCBFAA
:1039700000209DED040B32DD2849884209D10498CE
:1039800040B94FF00100FCF7CCFD00F03DFC06B063
:1039900010BD05DB9DED040B00F02AFC06B010BD48
:1039A00068469DED040B00F03BF810F0030011D0C9
:1039B000012818D09DED021B9DED000B02281AD0A6
:1039C00000F04AFA51EC100B01F052FC06B041EC49
:1039D000100B10BD9DED021B9DED000B012000F0B2
:1039E0006FFB06B010BD9DED021B9DED000B00F0BE
:1039F00033FA06B010BD012000F062FB51EC100B51
:103A000001F036FC06B041EC100B10BD00000000C8
:103A10000000000000000000FB21E93F0000F07FF3
:103A20002DE9F14F04462DED020B2DED088B8AB0E8
:103A30009FEDE70B80ED020B139EE74826F0004553
:103A400085420ADC9DED120B002084ED000B0AB0CC
:103A5000BDEC088B03B0BDE8F08FE0489FEDE0AB14
:103A60009FEDE1BBA84247DDE14F9FEDE39B9FED5A
:103A7000E48B9DED120B53EC1A2B51EC100B002E26
:103A80001CDD02F059F841EC100BBD4208D053EC9C
:103A90001B2B51EC100B02F04FF8C4E900010BE0B6
:103AA00053EC192B51EC100B02F046F853EC182B89
:103AB00002F042F8C4E900010120C8E701F016FC59
:103AC00041EC100BBD4208D053EC1B2B51EC100BFA
:103AD00001F00CFCC4E900010BE053EC192B51EC94
:103AE000100B01F003FC53EC182B01F0FFFBC4E9B1
:103AF00000014FF0FF30AAE7C348A84279DB9DEDF3
:103B0000120B51EC100B00F09DFF41EC180B9FEDD8
:103B1000C00B53EC102B01F0CFFE9FEDBF1B53ECFD
:103B2000112B01F0E3FB01F031FE074601F05DFED1
:103B300041EC190B53EC1A2B01F0BEFE53EC182B81
:103B400001F0EEFF41EC180B53EC1B2B51EC190B61
:103B500001F0B2FEDFF8C8A241EC100B4FEA155895
:103B60000125FA4453EC102B51EC180B01F0E4FF43
:103B7000032DC4E900013DD0C1F30A5005EB451106
:103B8000A8EB00001139814234DA0AEB051BB0EED4
:103B900048AA9BED000BF0EE68AA53EC102B51ECF9
:103BA000190B01F089FE41EC1B0B51EC1A0B53EC85
:103BB0001B2B01F0C1FF41EC180B51EC1A0B53EC1D
:103BC000182B01F0B9FF53EC1B2B01F0B5FF9BED57
:103BD000020B41EC1A0B53EC102B51EC190B01F0BA
:103BE0006BFE53EC1A2B01F0A7FF41EC100B6D1C80
:103BF000B8E70EE0002EA8BF3846BFF628AF94ED18
:103C0000000B51EC100B01F033FBC4E900017842CA
:103C10001DE7C6F3130040F4801EC6F30A50A0F25D
:103C2000F530471100F01F05C5F12000DDF848B060
:103C300008900020069007900520EC467949002D59
:103C400007EB0002794408BF51F8221009D051F85F
:103C5000223001EB8201AB404A68089922FA01F157
:103C60001943A1FB0E26A1FB0B131A449A4234BF41
:103C70000123002303EB06080CEB8003D3E901A624
:103C80000E448E4234BF0121002192448A4411B176
:103C9000924502D903E0924501D2012100E00021C2
:103CA000C3E901A641444CF82010011EA0F1010017
:103CB000C4DC029800F10050850F0298DDE903672B
:103CC0008000DDF8148001F090FD41EC1A0B3046C5
:103CD00001F0A2FD9FED541B53EC112B01F0ECFD04
:103CE00041EC1B0B384601F097FD9FED511B53EC47
:103CF000112B01F0E1FD41EC180B404601F08CFD69
:103D00009FED4D1B53EC112B01F0D6FD41EC190B2F
:103D100051EC180B53EC192B01F0E8FA53EC1B2B68
:103D200001F0E4FA53EC1A2B01F0E0FACDE90801B6
:103D3000002008909DED080B53EC1A2B51EC100B52
:103D400001F0FAFE53EC1B2B01F0F6FE53EC182B9E
:103D500001F0F2FE53EC192B01F0E2FE9FED381B4F
:103D600053EC112B01F0A8FD9FED370B41EC180B24
:103D700053EC102B9DED080B51EC100B01F09CFD4A
:103D800053EC182B01F0B2FA9FED310B41EC180BFC
:103D900053EC102B9DED080B51EC100B01F08CFD3A
:103DA00053EC182B01F0A2FA41EC100B139810F011
:103DB000004F06D06D4251EC100B01F059FA41EC66
:103DC000100B284684ED000B41E6000000000000C7
:103DD0000000000000000000FB21E93F7CD9024008
:103DE00000004054FB21F93F3163621A61B4D03DB9
:103DF000FB21F93F000000000000601A61B4D03DD3
:103E00007370032E8A19A33BFB2139410000000087
:103E100083C8C96D305FE43F000000000000E03F50
:103E2000022C0000502B0000000000000000103E9B
:103E3000000000000000103C000000000000103AEC
:103E4000182D4454FB21F93D3326A611460B113C95
:103E500000000054FB21F93D10B52DED040B2DEDB4
:103E6000088B82B0B0EE419AF0EE619A0B9820F088
:103E700000449FED4BABB4F1795F11DA9DED0A0B75
:103E800051EC100B01F082FC002801BFB0EE4A0A91
:103E9000F0EE6A0A02B0BDEC088B04BF04B010BD9E
:103EA0009DED0A0B53EC102B51EC100B01F004FDAF
:103EB00041EC180B3C480621B0EE480AF0EE680AC7
:103EC000784400F081F853EC182B51EC100B01F002
:103ED000F3FC9DED0A0B41EC1B0B53EC192B51EC41
:103EE000100B01F0E9FC41EC190B53EC1B2B51ECCE
:103EF000180B01F0E1FC53EC192B01F01DFE9FEDB6
:103F00002C0B41EC190B53EC102B51EC180B01F05E
:103F1000D3FC41EC100B2848844210DA53EC192BE7
:103F200051EC100B01F008FE53EC1A2B01F0F8FDD8
:103F300041EC100B02B0BDEC088B04B010BD1F4863
:103F4000A042BCBF9FED1E1B8DED001B06DBA4F540
:103F500000100190002000909DED001B51EC100B13
:103F600053EC112B01F0E8FD9DED000B41EC180B1B
:103F700053EC102B51EC1A0B01F0DEFD41EC1A0B47
:103F800053EC192B51EC180B01F0D6FD53EC1A2B06
:103F900001F0C6FD41EC100BCCE700000000000072
:103FA000000000000000F03F742800000000000046
:103FB000000000000000E03F3333D33F0000E93F42
:103FC000000000000000D23F70B504462DED028BCA
:103FD0004D1E00EBC500B0EE408AF0EE608A90ED19
:103FE000000B35F0060017D053EC182B51EC100BDA
:103FF00001F062FC41EC100B6D1E04EBC50090ED6E
:10400000001B51EC100B53EC112B01F06FF941EC3C
:10401000100B35F00600E7D1022D36D0042D1CD050
:10402000062D1CBFBDEC028B70BD53EC182B51EC60
:10403000100B01F041FC94ED0A1B53EC112B01F025
:1040400055F953EC182B01F037FC94ED081B53EC99
:10405000112B01F04BF941EC100B53EC182B51ECE8
:10406000100B01F029FC94ED061B53EC112B01F011
:104070003DF953EC182B01F01FFC94ED040B53ECAD
:10408000102B01F033F941EC100B53EC182B51ECD1
:10409000100B01F011FC94ED021B53EC112B01F0FD
:1040A00025F953EC182B01F007FC94ED001B53ECA1
:1040B000112B01F01BF9BDEC028B41EC100B70BD14
:1040C00031B504462DED040B2DED0A8BB0EE41BA4F
:1040D000F0EE61BA0B989DED0A0B20F00040B0F1B4
:1040E000795F0DDA51EC100BFFF7ADFA042808BF29
:1040F00000F0AAF89DED0A0BBDEC0A8B05B030BDAF
:1041000053EC102B51EC100B01F0D6FB41EC180BCB
:104110009DED0A0B53EC182B51EC100B01F0CCFB6E
:1041200041EC190B2C48B0EE480AF0EE680A052164
:104130007844FFF749FF9FED2ACBB0EE40AAF0EE9E
:1041400060AA9CB353EC1C2B51EC190B01F0B4FB8F
:1041500041EC1C0B53EC1A2B51EC190B01F0ACFB8E
:104160009FED210B41EC190B53EC102B51EC1B0B69
:1041700001F0A2FB53EC192B01F0DEFC53EC182BE1
:1041800001F09AFB53EC1B2B01F0D6FC53EC1C2BDB
:1041900001F0D2FC9DED0A1B53EC112B01F0C0FC89
:1041A000BDEC0A8B05B041EC100B30BDFFE753ECC2
:1041B0001A2B51EC180B01F07FFB53EC1C2B01F078
:1041C00095F853EC192B01F077FB9DED0A1B53EC8E
:1041D000112B01F08BF8E3E7FC2600000000000043
:1041E000495555555555C5BF000000000000E03F3A
:1041F00010B553EC102B51EC100B01F077F841EC9B
:10420000100B10BD000000009FED050B10B553EC26
:10421000102B51EC100B01F025F941EC100B10BDE7
:1042200000000000000000009FED050B10B553ECEE
:10423000102B51EC100B01F03FFB41EC100B10BDAB
:1042400000000000000000709FED050B10B553EC5E
:10425000102B51EC100B01F02FFB41EC100B10BD9B
:10426000000000000000001010B5044691ED000BA6
:10427000FFF702FA84ED000A10BD10B5044690ED78
:10428000000B0846FFF700FB84ED000B10BD303833
:104290000A2801D2012070470020704700BF7047F4
:1042A00010B504466FF00400FEF736FDE11704EB8D
:1042B0005171C1F3C701074A11701046007800EB35
:1042C0004001C1EBC0104FF6FF7101EAC000024986
:1042D000088010BD100000201200002070B50446B8
:1042E0004FF4077094FBF0F0C6B24FF4077094FBE4
:1042F000F0F100FB114085B205E04FF4077000F0CB
:104300002FF8701EC6B2002EF7D115B1284600F066
:1043100027F870BD0146114A12784A434FF0E02356
:104320005A6100229A611A46126942F001021A612A
:1043300000BF4FF0E022106900F001021AB100F452
:104340008032002AF5D04FF0E022126922F00102FB
:104350004FF0E0231A6100229A617047100000209C
:104360000146114A12884A434FF0E0235A61002265
:104370009A611A46126942F001021A6100BF4FF0B9
:10438000E022106900F001021AB100F48032002A24
:10439000F5D04FF0E022126922F001024FF0E02345
:1043A0001A6100229A617047120000202DE9F0473F
:1043B0002DED048BF0EE408AB0EE608A744890EDEB
:1043C000000AF4EEC08AF1EE10FA03DB90ED000A69
:1043D000F0EE408A6F4890ED000AF4EEC08AF1EEEC
:1043E00010FA03D890ED000AF0EE408A6A4890ED8A
:1043F000000AB4EEC08AF1EE10FA03DB90ED000A79
:10440000B0EE408A654890ED000AB4EEC08AF1EE45
:1044100010FA03D890ED000AB0EE408A604890EDA3
:10442000000A28EE800ADFED5F0A20EE200ABDEECA
:10443000C00AB8EEC00AF0EE408A90ED000A28EEFD
:10444000000ADFED590A20EE200ABDEEC00AB8EEE0
:10445000C00AB0EE408A5548D0ED009A544890ED1D
:10446000009A38EEE90ABDEEC00A10EE100A00F01C
:1044700097FC054638EE490ABDEEC00A10EE100A58
:1044800000F08EFC0646A81900F08AFC074605B12C
:1044900016B94FF0010A01E04FF0010AF4EEE98A83
:1044A000F1EE10FA09DBB4EEC98AF1EE10FA01DB85
:1044B000012000E00420814608E0B4EEC98AF1EE54
:1044C00010FA01DB022000E0032081464FF00008D3
:1044D000002451E0002C26DBB9F1010F09D0B9F11D
:1044E000020F0CD0B9F1030F0FD0B9F1040F18D19E
:1044F00011E0B7EE000AFDF797FEA41B12E0BFEE35
:10450000000AFDF791FEA41B0CE0BFEE000AFDF7C8
:104510008BFEA41B06E0B7EE000AFDF785FEA41B88
:1045200000E000BF26E0B9F1010F09D0B9F1020F98
:104530000CD0B9F1030F0FD0B9F1040F18D111E06D
:10454000B7EE000AFDF73AFF2C4412E0B7EE000A7E
:10455000FDF734FF2C440CE0BFEE000AFDF72EFF00
:104560002C4406E0BFEE000AFDF728FF2C4400E0D3
:1045700000BF00BF08F10108B845ABDB0B48C0ED38
:10458000008A0B4880ED008ABDEC048BBDE8F08703
:1045900024000020200000202C0000202800002003
:1045A0004C00002025C4FA3ED7B35D3F3000002008
:1045B0003400002010B52DED048B00F0A3FA9FED20
:1045C0001C0BB0EE408AF0EE608A51EC180B00F044
:1045D0005BFE09EE100AF0EE490A9FED170AFFF79D
:1045E000E5FE51EC180B00F04FFE09EE100A51ECFD
:1045F000180B00F049FE09EE900AF0EE490AB0EE01
:10460000690AFFF7D3FE51EC180B00F03DFE09EEEE
:10461000100ADFED090AB0EE490AFFF7C7FEDFED29
:10462000060A9FED050AFFF7C1FEBDEC048B10BD25
:1046300000000000000049400000000010B52DED12
:104640000E8B9FED2C0BB0EE40DAF0EE60DA9FEDB2
:104650002B0BB0EE40EAF0EE60EA00F053FA9FED6B
:10466000290BB0EE408AF0EE608A37E053EC182B4D
:104670009FED220B51EC100B01F01EF941EC1C0BCD
:10468000B0EE4C0AF0EE6C0AFFF766F9B0EE40BAF5
:10469000F0EE60BA9FED170B53EC102B51EC1B0B97
:1046A00001F00AF941EC1A0B00F0EEFD09EE100AD8
:1046B00051EC180B00F0E8FD09EE900AF0EE490A03
:1046C000B0EE690AFFF772FE9FED100B53EC102B52
:1046D00051EC180B00F00AFE41EC180B9FED0D0B8E
:1046E00053EC102B51EC180B01F0AAF8BED3BDEC23
:1046F0000E8B10BD00000000000024409A9999998B
:104700009999B93F0000000000000000000000007F
:104710000000F03F000000C0796A5F4010B52DED49
:10472000108B8CB000F0EEF99FED8C0B8DED0A0B29
:1047300000249FED8C0BB0EE408AF0EE608A9FED76
:104740008B0B8DED080B9FED850BB0EE40AAF0EEC4
:1047500060AA9FED820BB0EE409AF0EE609A53ECA7
:10476000182B9FED840B51EC100B00F07BFE41ECFD
:104770001B0B9FED7A0BB0EE40CAF0EE60CA9FEDC6
:10478000770BB0EE40DAF0EE60DA0020049005908E
:104790000690079000900190029003908DED04CB5D
:1047A0008DED06DB9DED041BB0EE410AF0EE610AD3
:1047B00053EC182B51EC100B00F098FDCDE90401DF
:1047C00004249FED6C0B8DED0A0BB0EE4B9AF0EECE
:1047D0006B9AFEF72BF94FF47A70FFF77FFDDFED50
:1047E000670A9FED670AFFF7E1FDFEF711F94FF445
:1047F0007A70FFF773FD8FE053EC192B9FED610B7F
:1048000051EC100B01F058F841EC1F0BB0EE4F0AC1
:10481000F0EE6F0AFEF7C8FFB0EE40EAF0EE60EA95
:1048200053EC182B51EC1E0B01F046F841EC1A0B1F
:10483000B0EE490AF0EE690AFEF7B6FFB0EE40FAB4
:10484000F0EE60FA53EC1A2B51EC1F0B01F034F828
:1048500041EC1E0B53EC1C2B00F048FDCDE9000190
:10486000B0EE490AF0EE690AFFF776F8B0EE40FACA
:10487000F0EE60FA53EC1A2B51EC1F0B01F01CF810
:1048800041EC1E0B53EC1D2B00F030FDCDE9020175
:104890009DED041BB0EE410AF0EE610A53EC102BC3
:1048A0003AA0FBF7F9FC9DED061BB0EE410AF0EED5
:1048B000610A53EC102B37A0FBF7EEFC9DED061BB5
:1048C000B0EE410AF0EE610A51EC100B00F0DCFC96
:1048D0000EEE100A9DED041BB0EE410AF0EE610AE7
:1048E00051EC100B00F0D0FC0EEE900AF0EE4E0AE8
:1048F000B0EE6E0AFFF75AFD9DED000B8DED040B37
:104900009DED020B8DED060B53EC1B2B51EC190B9F
:1049100000F0ECFC41EC190B9FED200B53EC102B3D
:104920009DED0A0B51EC100B00F0C6FF41EC1E0B85
:1049300053EC192B01F0BEF8FFF45EAF51EC180BED
:1049400000F0A2FC0EEE100ADFED0C0AB0EE4E0AEB
:10495000FFF72CFD0CB0BDEC108B10BD000000006B
:1049600000000000000000000000444000000000C3
:1049700000002E40000000000000F03F000000009A
:10498000000020420000000000000840783A256640
:104990000A000000793A25660A00000000000000C5
:1049A000FB21094010B52DED068B8CB000F0AAF864
:1049B0009FED200BB0EE409AF0EE609A9FED1F0B3A
:1049C000B0EE40AAF0EE60AA30216846FBF775FD14
:1049D0008DED029B8DED04AB002424E0684600EBD6
:1049E000041090ED021BB0EE410AF0EE610A51ECAA
:1049F000100B00F049FC08EE100A684600EB0410AA
:104A000090ED001BB0EE410AF0EE610A51EC100B84
:104A100000F03AFC08EE900AF0EE480AB0EE680AA0
:104A2000FFF7C4FC641C032CD8DB0CB0BDEC068B78
:104A300010BD000000000000000049400000000020
:104A40000000444082B0CDE9000121F00040019017
:104A50009DED000B02B051EC100B704700BF054AF2
:104A6000128802F04002002AF9D0C2B2014B9A80AB
:104A7000704700000010014010B582B01446CDE927
:104A800000010023009A2360194B21F00040984256
:104A90002ADA024328D0B0F5801FA8BF226810DAB6
:104AA0009FED150B53EC102B9DED000B51EC100BF3
:104AB00000F002FFCDE900016FF0350221F0004067
:104AC00022600F4B6FF31E5103EB20501044206007
:104AD00041F0FF5040F0005001909DED000B00BFF1
:104AE00002B051EC100B10BD9DED000BF8E700007B
:104AF0000000F07F000000000000000000005043B4
:104B000002FCFFFF10B5FDF791FF4FF47A70FFF73D
:104B1000E5FBDFED090A9FED080AFFF747FCDFED33
:104B2000060A9FED050AFFF741FCFDF771FF4FF400
:104B30007A70FFF7D3FB10BD000000001CB54FF4E6
:104B4000A060FDF739FDA820FFF7AAFB4FF416502F
:104B500000F006FB4FF4165000F0A8FAFDF746FBF4
:104B60000020FEF7ADF8FDF729FB0120FDF7CAFD97
:104B70004FF47A70FFF7B2FB532144F61F60FEF743
:104B800015F9FDF753FF40F2DC50FFF7A7FB0020BB
:104B9000009001900024FDF719FD10236FA203215E
:104BA0001E20FDF7B1FED8E0012000F055FA0128E3
:104BB00007D14FF4AF70FFF791FB0098401C0090B5
:104BC0000024022000F048FA012809D114B1002085
:104BD000019005E04FF4AF70FFF780FB01200190DA
:104BE000009801282CD1FDF7F1FC10235DA20021D3
:104BF0000846FDF789FE0198012821D1FDF7E6FC62
:104C0000102358A200210846FDF77EFE102356A26D
:104C100004210020FDF778FE002001904FF47A7007
:104C2000FFF75CFBFDF7F4FE4FF47A70FFF756FBDD
:104C3000FFF704FDFDF7FAFE4FF47A70FFF74EFB25
:104C40000098022828D1FDF7C1FC102348A20021BA
:104C50000846FDF759FE019801281DD1FDF7B6FC65
:104C6000102343A200210846FDF74EFE10233EA26A
:104C700004210020FDF748FE00200190FDF7C8FE4A
:104C80004FF47A70FFF72AFBFFF78CFEFDF7CEFE9C
:104C90004FF47A70FFF722FB0098032828D1FDF724
:104CA00095FC102335A200210846FDF72DFE019842
:104CB00001281DD1FDF78AFC102330A200210846EF
:104CC000FDF722FE102328A204210020FDF71CFE80
:104CD00000200190FDF79CFE4FF47A70FFF7FEFA7A
:104CE000FFF768FCFDF7A2FE4FF47A70FFF7F6FAC3
:104CF0000098042822D1FDF769FC102321A200218D
:104D00000846FDF701FE0198012817D1FDF75EFC6A
:104D100010231CA200210846FDF7F6FD102312A265
:104D200004210020FDF7F0FD00200190FFF7F6FCC4
:104D3000FDF77CFE4FF47A70FFF7D0FA0098052853
:104D40000BD1FDF743FC102311A203210820FDF72E
:104D5000DBFD002000900190012425E75761697474
:104D60002E2E2E0053696E00537461727400000081
:104D7000547269616E676C6500000000526563746F
:104D80000000000054687265654C656166000000B3
:104D900044726177204C696E6520456E64000000A6
:104DA0000146002901DB084670474842FCE7000045
:104DB0002DE9F0432DED048B93B004468846002581
:104DC0009FED8D0A8DED010A9FED8B0A8DED020A94
:104DD0000AE128466D1C205C442806D0472805D0EF
:104DE0004D287AD05528FFD1FDE0FCE028466D1C07
:104DF000205C8DF80C0000208DF80D0003A8FBF757
:104E000045FB20B1012803D0042864D15EE000BF37
:104E100060195821FBF747FB064660195921FBF73B
:104E200042FB07468FB9701CFEF7A2FCB0EE408A29
:104E3000F0EE608A51EC180B00F026FA01906F48F2
:104E400090ED010A8DED020A2BE08EB9781CFEF779
:104E50008FFCB0EE408AF0EE608A51EC180B00F047
:104E600013FA0290654890ED000A8DED010A18E0F2
:104E7000781CFEF77DFCB0EE408AF0EE608A51ECC3
:104E8000180B00F001FA02905DA7701CFEF770FC91
:104E9000B0EE408AF0EE608A51EC180B00F0F4F9A5
:104EA00001909DED021AF0EE410A9DED011AB0EE5F
:104EB000410AFFF77BFA9DED010A504880ED000A98
:104EC0009DED020A80ED010A05E006E04FF4AF70A7
:104ED000FFF704FA00BF00BF85E028466D1C205C88
:104EE0008DF80C0028466D1C205C8DF80D002846BE
:104EF0006D1C205C8DF80E0000208DF80F0003A8BB
:104F0000FBF7C4FA722828D0B0F5967F62D16019F9
:104F10005321FBF7C8FA814609F10100FEF728FC8E
:104F2000B0EE409AF0EE609A51EC190B00F0ACF93B
:104F300008EE100AB3EE0E0AB4EE408AF1EE10FA53
:104F400001D1FDF765FD9FED2F0AB4EE408AF1EE29
:104F500010FA01D1FDF76AFD44E0284890ED000AFF
:104F600010EE101A084600F0D1FE41EC180B53EC7D
:104F7000182B25A0FBF790F9204890ED000A10EEC1
:104F8000101A084600F0C2FE41EC180B53EC182B27
:104F900024A0FBF781F9194890ED010A10EE101AD0
:104FA000084600F0B3FE41EC180B53EC182B1EA082
:104FB000FBF772F9114890ED010A10EE101A08463D
:104FC00000F0A4FE41EC180B53EC182B15A0FBF7D6
:104FD00063F907E018A0FBF75FF903A91DA0FBF731
:104FE0005BF900BF00BF00BF4545FFF6F2AE13B04E
:104FF000BDEC048BBDE8F083000000001800002029
:1050000000000000000048424162736F6C757465D7
:1050100020706F736974696F6E203A2058203D20AC
:105020002566000025660A0020202D202059203DFD
:105030002025660A00000000436F6D6D616E6420DC
:105040006E6F74207265636F676E697A6564203A6B
:10505000204D000025730A0010B50446012C04D031
:10506000022C0BD0032C1BD111E002210E48FDF7BE
:1050700095F808B9012010BD0020FCE708210A4876
:10508000FDF78CF808B90120F5E70020F3E72021AF
:105090000548FDF783F808B90120ECE70020EAE7AE
:1050A0004FF0FF30E7E700000000024010B588B085
:1050B000044601210220FDF7C7FC01218804FDF709
:1050C000D3FC2548FEF77AF907220B212348FDF788
:1050D00042F807220A212148FDF73DF84FF44060CD
:1050E000059002208DF818008DF8190000208DF829
:1050F0001A0001208DF81B0005A91848FCF7E3FFF2
:1051000001940020ADF80800ADF80A00ADF80C00DD
:10511000ADF810000C20ADF80E0001A90E48FEF706
:1051200021FA01210C48FEF73DF9012240F22551F8
:105130000948FEF7F2F927208DF81C0000208DF8B1
:105140001D008DF81E0001208DF81F0007A8FDF737
:10515000F7F908B010BD000000480040000402400C
:1051600010B588B0044601210846FDF76DFC012109
:105170001020FDF799FC072209212548FCF7EBFFD9
:1051800007220A212248FCF7E6FF4FF4C060069090
:1051900002208DF81C008DF81D0000208DF81E00E7
:1051A00001208DF81F0006A91948FCF78CFF029416
:1051B0000020ADF80C00ADF80E00ADF81000ADF811
:1051C00014000C20ADF8120002A91248FEF7CAF92B
:1051D0004FF4A060FDF7F0F925208DF804000320BE
:1051E0008DF8050000208DF8060001208DF80700DD
:1051F00001A8FDF7A5F9012240F225510548FEF767
:105200008CF901210348FEF7CDF808B010BD00006D
:10521000000002400010014010B500290AD00878B3
:10522000002807D005487844FCF798F8002801D0FA
:10523000002010BD0248784410BD0000F6160000A2
:10524000EE16000010B500290AD00878002807D013
:1052500005487844FCF782F8002801D0002010BDF2
:105260000248784410BD0000E6160000DE1600007B
:1052700081F00041704780F00040704721F000410C
:10528000704720F00040704721F00042A2F16052C8
:10529000B2F5801F01F0004328BFD2F17F6C0BD91B
:1052A0005FEA001C43EAC20242EB507018BF70472D
:1052B00028BF20F001007047B2F5801FBCBF184620
:1052C00070474FEA410C1CF5001F02D2084600F05F
:1052D00093BD70B500F09AFB00000089FFF7F6BFA0
:1052E0004FF00040A0F580007047000010B591EA33
:1052F000030F48BF83F0004300F12684841A71EB4A
:10530000030C05D2121943EB0C03001B61EB0C01DB
:10531000DFF824E14FEA1154A4EB135C1EEA430FBB
:1053200018BF9EEA445F73D023EA0E03DCF1200E1F
:1053300021EA045143F4801332D322FA0CFE10EB1D
:105340000E0023FA0CFE41EB0E01CCF1200E03FA05
:105350000EFE10EB0E0051F10001B1F5801FCCF1F3
:10536000200E32D201EB045112FA0EF2BDE81040C9
:1053700058BF7047401C38BF5FEA420218BF7047F1
:10538000002814BF20F0010041F100014FEA410361
:1053900013F5001F38BF7047A1F1C04100F084BB76
:1053A000012A43EB0302ACF1200CDCF11F0E32BFEB
:1053B0004FF0000E23FA0CF310EB030041EB045105
:1053C000B4EB115FD0D0A1EB045101F58011490875
:1053D0005FEA300001EB04510ED350F1000038BFFA
:1053E00012FA0EFE08D1BDE81040C9E7401C38BFD4
:1053F0005FEA4202CAD1C3E7BDE810404FEA410369
:1054000013F5001F38BF7047A1F1C04100F04CBB3D
:105410009EEA445F08D011EA5E0FBDE8104004BF69
:1054200001F0004100207047BDE8104070B500F069
:10543000EDFA00BF64FBBE3E0000E0FF02494FF002
:10544000000000F0E3BC00BF0000F87F491058BF27
:10545000C1F140415B1058BFC3F140438B42EFF3B1
:10546000008070472DE9C04130B4DFF8A0C23CEAAB
:10547000111418BF3CEA131400F0EC8081EA030514
:105480001CEA111444EAD57418BF1CEA131500F085
:10549000C780A4EB05044FF0004545EAC12145EA69
:1054A000C32341EA505143EA525304F17F749942B5
:1054B00004F500344FEAC0204FEAC22208BF9042F0
:1054C00000F09C804FEA13650FF24016765D4FEABC
:1054D000134506FB05F7C7F1807706FB07F74FEA90
:1054E000D737A7FB03687642C8F58038A7FB06CEFE
:1054F00038BFA8F1010807FB08E64FF0000EA6FB35
:10550000028CE6FB03CEDCF1000CCEF1004E38BF7E
:10551000AEF1010EA6FB0C584FF000074FF000054E
:10552000E6FB0E87A1FB08C6A0FB07CE16EB0E0616
:1055300045F10005E1FB076515F1E04E7EBFA4F5DE
:1055400080345FEA46066D4116F1800745F100059B
:105550004FEA17274FEA066647EA0567A6F1DE46D7
:10556000B6F1805F4FEA15251FD9384624F0010CAB
:1055700005EBC471BCF1FE6F01EB0C1102D8F0BC5D
:10558000BDE8008124425CBF01F5801E9EEAC47F15
:1055900002D4F0BCBDE80081244238D4F0BCA1F1B3
:1055A000C041BDE8004100F07FBA4FEAD22242EA92
:1055B00043524FEAD323A7FB02864FEAD02040EAAA
:1055C000415007FB03661EEA0E0F4FEAD12105FB8F
:1055D000026658BFA6EB0056B6EB00564FEA520ED5
:1055E0004EEAC37E18EB0E0E56EB530EBDD518EBEC
:1055F00002085E417F1C55F10005B6E74FF48015A7
:105600004FF000074FF000064FF00008ADE7F0BC88
:105610004FF0000001F1C04101F00041BDE8008100
:1056200011EA0C1F0CEA131500D00CE013EA0C1F52
:1056300000F025804FF00000F0BC81EA030101F08A
:105640000041BDE80081F0BCBDE8004181EA0301F2
:1056500000F02ABAF0BCBDE8004170B500F0D6F900
:10566000097EFC3E00F007B881EA03014FF000001C
:1056700001F00041704781EA030100F015BAF0BC67
:10568000BDE800414FF0000021497047FFFDFBF9E4
:10569000F7F5F4F2F0EEEDEBE9E8E6E4E3E1E0DE65
:1056A000DDDBDAD8D7D5D4D3D1D0CFCDCCCBCAC8D7
:1056B000C7C6C5C4C2C1C0BFBEBDBCBBBAB9B8B7FE
:1056C000B6B5B4B3B2B1B0AFAEADACABAAA9A8A8F1
:1056D000A7A6A5A4A3A3A2A1A09F9F9E9D9C9C9BBF
:1056E0009A9999989797969595949393929191906A
:1056F0008F8F8E8E8D8C8C8B8B8A898988888787FB
:105700008685858484838382828181800000FF076F
:105710000000F87F51EA030C17D41CF5801F58BF16
:10572000BCF5801F00F10680994218BF704708BF82
:105730009042704707D711F5801F58BF13F5801F9F
:1057400019D499427047894270471CF5801F08D5CB
:10575000BCF5801FF7D58B4218BF704708BF824247
:1057600070474FF4001C1CEB410F38BF1CEB430F7C
:1057700001D28B42704770B500F048F9922449007D
:105780004FF000514FF08053FFF760BE4FEA4103E6
:105790004FEA5353A3F58063D3F11E03C8BFD3F17F
:1057A000210C0CDD4FF0004242EAC12242EA505285
:1057B00032FA03FC8CEAE17CACEBE1707047102B11
:1057C000C4BF0020704703F5787CBCF1FF3F04D0D4
:1057D0006FF0004282EA2100704770B500F016F9C0
:1057E0004992248000207047F2E710F0004248BF41
:1057F0004042B0FA80F310FA03F10AD0C3F11D035E
:1058000003F580634FEA415002EB035202EBD121D2
:1058100070474FF000007047B0FA80F310FA03F1C0
:105820000AD0C3F11D0303F580634FEA41504FEAEC
:10583000035202EBD12170474FF000007047000087
:1058400051EA030C17D41CF5801F58BFBCF5801F0C
:1058500000F10680994218BF704708BF9042704718
:1058600007D711F5801F58BF13F5801F19D499422F
:105870007047894270471CF5801F08D5BCF5801F12
:10588000F7D58B4218BF704708BF824270474FF46C
:10589000001C1CEB410F38BF1CEB430F01D28B42A5
:1058A000704770B500F0B2F8922449004FF00051F3
:1058B0004FF08053FFF7CABDDFF848C170B51CEA4E
:1058C000111E1EBF1CEA13159EEA0C0F95EA0C0F61
:1058D00000F06F8081EA030423EA4C134EEAD47E81
:1058E00021EA4C1141F4801143F48013AE44A1FB32
:1058F000024CA0FB0365AEF17F7E361955EB0C051B
:10590000A1FB034C4CF10003A0FB021C16EB0C06A0
:10591000654153F10003094218BF46F0010613F434
:10592000007F0BD14FEA03314FEA0530340341EADF
:10593000155140EA16506FF003020AE04FEAC32106
:105940004FEAC520F40241EA555140EA56506FF043
:10595000020202EB2E4201EB025585EACE710AD01B
:105960005FEA440C18BF24F0004450F1000041F1FC
:10597000000120EAD47040F2FE7C624500D270BD86
:10598000A84214BF4FF080444FF04044002E08BF9F
:105990000024BEF1806FA8BFA1F1C041BDE87040F6
:1059A00080F282804FF0000001F1C04101F000411F
:1059B00070479EEA0C0F0CEA131518BF95EA0C0FFE
:1059C00006D04FF0000081EA030E0EF0004170BDDA
:1059D00000F01CF88900013E00F007B800F009B89B
:1059E0004FEA430C5FEA5C5C08D081EA030100F0F7
:1059F0005BB84FEA410C5FEA5C5CF6D14FF0000007
:105A0000014970470000FF070000F87F0EF1020E09
:105A10002EF0030E5EF8046B364205D4012A43EBE8
:105A2000030515F5001F12D8012841EB010C1CF5E8
:105A3000001F0CD80ED14FEAD17C15F5001F0CEBDE
:105A40004C0C0CF1020C08BF4CEBD37C04E04FF083
:105A5000080C01E04FEAD37C0CEB4C0526FA05F666
:105A600006F00706B6F1040C06D20EEB860CBDE874
:105A700070404CF0010C6047DFE80CF0090B0202AB
:105A80004FF000414FF00000A1F5002170BD194614
:105A90001046012851EB010418BFD4F5001484BF4F
:105AA000002001F0004170BD0808A0F500114FEA88
:105AB0003101704753EA010C17D41CF5801F58BF01
:105AC000BCF5801F00F106808B4218BF704708BFED
:105AD0008242704707D713F5801F58BF11F5801F0A
