:020000040800F2
:10000000400600209D010008F1030008B10300082C
:10001000ED030008D5020008D71500080000000015
:100020000000000000000000000000000D060008B5
:10003000D90200080000000081040008150A000829
:10004000B7010008B7010008B7010008B7010008B0
:10005000B7010008B7010008B7010008B7010008A0
:10006000B7010008B7010008B7010008B701000890
:10007000B7010008B7010008B7010008B701000880
:10008000B7010008B7010008B7010008B701000870
:10009000B7010008B7010008B7010008B701000860
:1000A000B7010008B7010008B7010008B701000850
:1000B000B7010008B7010008B7010008B701000840
:1000C000B7010008B7010008B7010008B701000830
:1000D000B7010008E5120008B7010008B7010008E1
:1000E000B7010008B7010008B7010008B701000810
:1000F000B7010008B7010008B7010008B701000800
:10010000B7010008B7010008B7010008B7010008EF
:10011000B7010008B7010008B70100089D0E0008EC
:10012000B7010008B7010008B7010008B7010008CF
:10013000B7010008B7010008B7010008B7010008BF
:10014000B7010008B7010008B7010008B7010008AF
:10015000B7010008B7010008B7010008B70100089F
:10016000B7010008B7010008B7010008B70100088F
:10017000B7010008B7010008B7010008B70100087F
:10018000B7010008B7010008DFF80CD000F090F8C4
:1001900000480047F5160008400600200648804742
:1001A00006480047FEE7FEE7FEE7FEE7FEE7FEE75C
:1001B000FEE7FEE7FEE7FEE7190A000889010008EE
:1001C000D2B201E000F8012B491EFBD27047002299
:1001D000F6E710B513460A4604461946FFF7F0FF46
:1001E000204610BD00F0004230F000400AD0C10DA2
:1001F00001F56071C0F3160042EA0151C2084007E0
:100200001143704700200146704701F0004330B4AD
:1002100021F0004150EA010206D00A0DA2F56072F9
:10022000C1F31301002A02DC30BC00207047440FE8
:1002300044EAC104C100E01830BC00EBC250AFF387
:1002400000800029A8BF7047401C490008BF20F06B
:100250000100704710B4B0FA80FC00FA0CF050EACC
:10026000010404BF10BC704749B1CCF1200421FA4D
:1002700004F411FA0CF118BF012121430843A3EB48
:100280000C01CB1D4FEA00614FEA102042BF002055
:1002900010BC704700EBC35010440029A4BF10BC31
:1002A0007047401C490008BF20F0010010BC704797
:1002B000064C074D06E0E06840F0010394E80700B3
:1002C00098471034AC42F6D3FFF762FFA41A000837
:1002D000C41A000800BFFEE77047F0B50A460021C7
:1002E0000023002400BF3DE0012505FA01F3156855
:1002F00005EA03049C4234D105684F000326BE4042
:10030000B543056015794E00B54006683543056074
:100310001579012D02D01579022D16D185684F006F
:100320000326BE40B543856055794E00B5408668CA
:1003300035438560456801268E40B5434560456874
:1003400096798E40B6B235434560C5684F000326A6
:10035000BE40B543C560D5794E00B540C66835434B
:10036000C560491C1029BFD3F0BDF0B5002300249F
:100370004D07ED0E02FA05F3CE1000F1200555F8F9
:1003800026504E07F70E0F26BE40B543CF1000F1A2
:10039000200646F82750CE1000F1200555F82650CB
:1003A00045EA0304CE1000F1200545F82640F0BDD3
:1003B00000BFFEE71CB50121082000F063F84FF4F0
:1003C0000040009001208DF8040000208DF8060008
:1003D00003208DF8050001208DF8070069460248CA
:1003E000FFF77BFF1CBD0000000C024000BFFEE7D2
:1003F0007047000070B5002100230F22C4781CB3A1
:10040000174C246804F4E064C4F5E064C4F30721E5
:10041000C1F10404E3B20A4144789C40E1B284781B
:10042000144021430C07210E0E4C057861550478C9
:1004300004F01F050124AC4005786D11AD0005F1F5
:10044000E025C5F8004109E0047804F01F05012407
:10045000AC40054D0678761145F8264070BD000089
:100460000CED00E000E400E080E100E0024901431F
:10047000024A1160704700000000FA050CED00E030
:100480007047000029B1064A12680243044B1A6003
:1004900004E0034A12688243014B1A60704700006F
:1004A0003038024029B1064A12680243044B1A60F0
:1004B00004E0034A12688243014B1A60704700004F
:1004C0004038024029B1064A12680243044B1A60C0
:1004D00004E0034A12688243014B1A60704700002F
:1004E0002038024029B1064A12680243044B1A60C0
:1004F00004E0034A12688243014B1A60704700000F
:100500004438024029B1064A12680243044B1A607B
:1005100004E0034A12688243014B1A6070470000EE
:1005200024380240F0B500210022002402250026D4
:100530000223324F3F6807F00C0121B1042905D096
:10054000082937D105E02E4F076036E02D4F0760B0
:1005500033E02A4F3F1F3F68C7F38056274F3F1FA6
:100560003F6807F03F036EB1264FB7FBF3F7DFF8A4
:100570008CC0ACF1040CDCF800C0CCF3881C07FB89
:100580000CF40CE01E4FB7FBF3F7DFF870C0ACF1D2
:10059000040CDCF800C0CCF3881C07FB0CF4174FEC
:1005A0003F1F3F68C7F301477F1C7D00B4FBF5F791
:1005B000076002E0124F076000BF00BF0F4F3F68A7
:1005C00007F0F0010909104F7A5C0768D7404760CF
:1005D0000A4F3F6807F4E051890A0B4F7A5C47687D
:1005E000D7408760054F3F6807F46041490B064FCD
:1005F0007A5C4768D740C760F0BD00000838024009
:100600000024F40000127A0060000020704700000F
:100610000CB50020019000903448006840F4803010
:100620003249086000BF3148006800F40030009093
:100630000198401C0190009818B90198B0F5A04F9E
:10064000F1D12A48006800F4003010B10120009078
:1006500001E0002000900098012846D12348403056
:10066000006840F08050214940310860204800680F
:1006700040F440401E4908601C48083000681B498F
:10068000083108600846006840F4004008600846E9
:10069000006840F4A05008601648091F0860081F51
:1006A000006840F08070091F086000BF0F480068B4
:1006B00000F000700028F9D040F205700E49086083
:1006C0000A480830006820F0030008490831086033
:1006D0000846006840F00200086000BF0348083088
:1006E000006800F00C000828F8D10CBD003802406A
:1006F0000070004008544007003C02400C4880ED68
:10070000000AC0ED010A80ED021AC0ED031A80ED67
:10071000042AC0ED052A80ED063AC0ED073A80EDC7
:10072000084AC0ED094A80ED0A5AC0ED0B5A7047DD
:100730007C00002070B52DED068B98B005469FED2E
:10074000600AB0EE408A30210CA8FFF740FD30214E
:100750006846FFF73CFD002423E005EB840090EDA4
:10076000000A584800EB8400D0ED000A30EE600A21
:1007700010EE101A0846FFF735FD41EC1A0BB0EEEB
:100780004A0AF0EE6A0A00F028FFB0EE409AF0EE56
:10079000609A51EC190BFFF738FD0CA941F82400C1
:1007A000641C0C2CD9DB0CA801F0BEF8B0EE408A1A
:1007B000BDEEC80A10EE100A60B9002007E09FEDF8
:1007C000400A694601EB800181ED000A401C0C28BB
:1007D000F5DB71E0002012E005EB800191ED000AED
:1007E000384901EB8001D1ED000A30EE600AC0EE1D
:1007F000080A694601EB8001C1ED000A401C0C2883
:10080000EADB00264FE0002011E02E4901EB8001D9
:1008100091ED000A694601EB8001D1ED000A30EE4E
:10082000200A284901EB800181ED000A401C0C28B8
:10083000EBDB002025E0234901EB800191ED000A6C
:10084000B5EEC00AF1EE10FA07D29FED1D0A1D4960
:1008500001EB800181ED000A12E01A4901EB8001F1
:1008600091ED000ADFED180AB4EEE00AF1EE10FA9D
:1008700006DD9FED150A134901EB800181ED000AA9
:10088000401C0C28D7DB00240AE00E4901EB840150
:10089000D1ED000AB0EE600AE0B200F017F8641C77
:1008A0000C2CF2DB761C00EE106AB8EEC00AB4EE37
:1008B000C80AF1EE10FAA6D318B0BDEC068B70BDD5
:1008C00000000000000000200000344370B52DED52
:1008D000028B0446B0EE408A00259FED2F0A28EED9
:1008E000000A9FED2E1AC0EE010A9FED2D0A30EE90
:1008F000800ABCEEC00A10EE105A0C2C43D2DFE87E
:1009000004F0060B10151A1F24292E33383D2946F2
:10091000244800F09AFC37E02946224800F097FC72
:1009200032E029461F4800F094FC2DE029461D487E
:1009300000F091FC28E029461B4800F086FC23E0EB
:100940002946194800F083FC1EE02946174800F0AC
:1009500082FC19E02946154800F07BFC14E029468A
:10096000124800F074FC0FE02946114800F06FFCBB
:100970000AE029460E4800F068FC05E029460D48CB
:1009800000F063FC00E000BF00BF012000F05CFE4F
:10099000BDEC028B70BD00000000FA44000034433F
:1009A0000000FA430000014000040040000800403D
:1009B000001800400048014010B500240CE00A492E
:1009C00051F8241000EE901AF8EEE00AB0EE600A3A
:1009D000E0B2FFF77BFF641C0C2CF0DB4FF47A7065
:1009E00000F032FE10BD000030000020042808D1C5
:1009F0004FF0E021096941F004014FF0E02211615C
:100A000007E04FF0E021096921F004014FF0E022F6
:100A1000116170477047000010B51548006840F438
:100A20007000134908601348006840F00100114944
:100A3000086000200F49083108600E4800680E4920
:100A400008400C4908600D48091D0860081F00682F
:100A500020F48020091F0860002006490C3108603E
:100A6000FFF7D6FD4FF0006001498039086010BDE6
:100A700088ED00E000380240FFFFF6FE1030002451
:100A800030B58BB004460D4601218804FFF72AFDDE
:100A900001210220FFF7F6FC032209212148FFF77C
:100AA00064FC4FF40070099002208DF828000320A8
:100AB0008DF8290000208DF82A0001208DF82B00E8
:100AC00009A91848FFF709FCA8B2ADF818000020E2
:100AD000ADF81A000794ADF8200006A9124800F0FE
:100AE000BFFB6020ADF804000120ADF8060040F621
:100AF000C41003900020ADF81000ADF8140001A957
:100B0000094800F057FA0821074800F091FA01213E
:100B1000054800F00BFA0121034800F016FA0BB06B
:100B200030BD0000000402400048014030B58BB0E9
:100B300004460D4601214020FFF7B4FC01210220AC
:100B4000FFF7A0FC09220E212748FFF70EFC09221F
:100B50000F212548FFF709FC4FF44040099002207F
:100B60008DF8280003208DF8290000208DF82A0038
:100B700001208DF82B0009A91B48FFF7AEFBA8B296
:100B8000ADF818000020ADF81A000794ADF8200069
:100B900006A9164800F064FB6020ADF804000120AF
:100BA000ADF8060040F6C41003900020ADF8100028
:100BB000ADF8140001A90D4800F0FCF908210B481C
:100BC00000F036FA01A9094800F03CFA082107486C
:100BD00000F08AFA0121054800F0A8F90121034834
:100BE00000F0B3F90BB030BD000402400018004023
:100BF00030B58BB004460D4601210846FFF772FC64
:100C000001211020FFF73EFC012209213848FFF79F
:100C1000ACFB01220B213648FFF7A7FB01220D2177
:100C20003348FFF7A2FB01220E213148FFF79DFB5D
:100C30004FF4D440099002208DF8280003208DF84D
:100C4000290000208DF82A0001208DF82B0009A929
:100C50002748FFF742FBA8B2ADF818000020ADF816
:100C60001A000794ADF8200006A9224800F0F8FA0F
:100C70006020ADF804000120ADF8060040F6C41075
:100C800003900020ADF81000ADF814004FF4807010
:100C9000ADF8140001A9174800F08CF90821154897
:100CA00000F0C6F901A9134800F0CCF90821114859
:100CB00000F01AFA01A90F4800F024FA08210D48A3
:100CC00000F070FA01A90B4800F076FA08210948F3
:100CD00000F0AEFA0121074800F028F9012105488B
:100CE00000F033F90121034800F03BF90BB030BDAF
:100CF000001002400000014030B58BB004460D46A4
:100D000001210220FFF7CEFB01210420FFF7BAFBEF
:100D1000022207212748FFF728FB02220621254847
:100D2000FFF723FBC020099002208DF82800032044
:100D30008DF8290000208DF82A0001208DF82B0065
:100D400009A91C48FFF7C9FAA8B2ADF8180000209D
:100D5000ADF81A000794ADF8200006A9164800F077
:100D60007FFA6020ADF804000120ADF8060040F6DF
:100D7000C41003900020ADF81000ADF8140001A9D4
:100D80000D4800F017F908210B4800F051F901A9AE
:100D9000094800F057F90821074800F0A5F901219A
:100DA000054800F0C3F80121034800F0CEF80BB06D
:100DB00030BD0000000802400004004030B58BB098
:100DC00004460D4601210420FFF76CFB0121082099
:100DD000FFF758FB02220D212E48FFF7C6FA022228
:100DE0000E212C48FFF7C1FA02220F212948FFF7F4
:100DF000BCFA4FF46040099002208DF828000320CF
:100E00008DF8290000208DF82A0001208DF82B0094
:100E100009A92048FFF761FAA8B2ADF81800002030
:100E2000ADF81A000794ADF8200006A91A4800F0A2
:100E300017FA6020ADF804000120ADF8060040F676
:100E4000C41003900020ADF81000ADF8140001A903
:100E5000114800F0F7F808210F4800F045F901A902
:100E60000D4800F04FF908210B4800F09BF901A94B
:100E7000094800F0A1F90821074800F0D9F901213B
:100E8000054800F053F80121034800F05EF80BB06C
:100E900030BD0000000C02400008004010B50121E8
:100EA000094800F06DF868B10848008840F4004037
:100EB000064908800121044800F044F80021024856
:100EC00000F043F810BD000000140040780000203E
:100ED0007FB505460C4601212020FFF7E3FA019576
:100EE000ADF800400020ADF80800ADF802006946FA
:100EF0000D4800F0B5F9012211460B4800F051F8F9
:100F00000121094800F021F837208DF80C0000205D
:100F10008DF80D0002208DF80E0001208DF80F00D5
:100F200003A8FFF767FA7FBD0014004021B10288D3
:100F300042F08002028004E002884FF67F731A407C
:100F400002807047CA430282704721B1028842F092
:100F50000102028004E002884FF6FE731A4002800C
:100F6000704731B1B0F8442042F40042A0F8442068
:100F700005E0B0F84420C2F30E02A0F84420704708
:100F800030B50246002000230024158A05EA01033B
:100F9000958905EA010413B10CB1012000E000209D
:100FA00030BD1AB183890B43838102E083898B436F
:100FB0008381704770B5002400220023058C4FF612
:100FC000FE7635400584028C8388048B4FF68F753E
:100FD0002C40B51E2C400D882C43751E2A408D894F
:100FE0002A434D882A43104DA84202D00F4DA842F3
:100FF00013D14FF6F7752A40CD892A434FF6FB757A
:101000002A408D882A434FF6FF652B404FF6FF5547
:101010002B400D8A2B434D8A2B43838004838D689C
:101020004563028470BD00000000014000040140DF
:101030000A460021018B4FF6F773194011430183D3
:101040007047000070B5002400220023058C4FF685
:10105000EF7635400584028C8388048B48F6FF7553
:101060002C404FF6FF452C400D884FF6FF7606EAE0
:1010700005252C434FF6DF752A408D8906EA0515B4
:101080002A434D8806EA05152A43154DA84202D089
:10109000144DA8421DD14FF67F752A40CD894FF6D9
:1010A000FF7606EA05152A434FF6BF752A408D885C
:1010B00006EA05152A434FF6FF352B404FF2FF7520
:1010C0002B400D8A06EA85052B434D8A06EA8505E5
:1010D0002B43838004838D688563028470BD000088
:1010E00000000140000401400A460021018B4FF23C
:1010F000FF7319404FF6FF7303EA0223194301837C
:101100007047000070B5002400220023058C4FF6C4
:10111000FF6635400584028C8388848B4FF68F757B
:101120002C404FF6FC752C400D882C434FF6FF5594
:101130002A408D894FF6FF7606EA05252A434D8819
:1011400006EA05252A43154DA84202D0144DA842AF
:101150001DD14FF2FF752A40CD894FF6FF7606EA82
:1011600005252A434FF6FF352A408D8806EA0525D6
:101170002A434EF6FF752B404DF6FF752B400D8A26
:1011800006EA05152B434D8A06EA05152B43838095
:1011900084838D68C563028470BD00000000014037
:1011A000000401400A460021818B4FF6F773194075
:1011B000114381837047000070B500220023002492
:1011C000058C4EF6FF7635400584038C8488828B2F
:1011D00048F6FF752A404FF6FF452A400D884FF626
:1011E000FF7606EA05252A434DF6FF752B408D89CB
:1011F00006EA05352B434D8806EA05352B430A4D93
:10120000A84202D0094DA84208D14BF6FF752C40E8
:101210000D8A4FF6FF7606EA85152C43848082837B
:101220008D680564038470BD000001400004014026
:101230000A460021818B4FF2FF7319404FF6FF736E
:1012400003EA022319438183704741637047816336
:101250007047C16370470164704741627047000086
:1012600000220288184B98420ED0184B98420BD09F
:10127000B0F1804F08D0164B984205D0154B9842DC
:1012800002D0154B984204D14FF68F731A404B8809
:101290001A43124B984207D0114B984204D04FF694
:1012A000FF431A400B891A4302804B68C3620B88C4
:1012B0000385054B984202D0044B984201D18B7AAA
:1012C000038601238382704700000140000401402F
:1012D0000004004000080040000C004000100040E6
:1012E0000014004010B540F22551154800F0B4F844
:1012F00028B3134800F06AF9C4B21248008800F419
:101300000040E0B90F480088C82812DA00210E48D2
:10131000FFF7A3FF0B48008818B901210A48FFF71F
:1013200014FE08490888411C064A118007490C54DC
:1013300005E00448008840F400400249088010BDE0
:1013400000100140780000200014004074010020CB
:1013500021B1828942F40052828104E082894DF6F3
:10136000FF731A408281704710B5044632488442A8
:1013700008D101211020FFF7C5F800211020FFF748
:10138000C1F857E02D48844209D101214804FFF7F4
:1013900099F800214FF40030FFF794F84AE028480C
:1013A000844209D101218804FFF78CF800214FF411
:1013B0008020FFF787F83DE02248844209D10121CF
:1013C000C804FFF77FF800214FF40020FFF77AF8F8
:1013D00030E01D48844209D101210805FFF772F869
:1013E00000214FF48010FFF76DF823E01748844286
:1013F00008D101212020FFF785F800212020FFF7E8
:1014000081F817E01248844209D101218807FFF7CB
:1014100059F800214FF08040FFF754F80AE00D48DA
:10142000844207D101214005FFF74CF800216005F7
:10143000FFF748F810BD00000010014000440040D4
:1014400000480040004C00400050004000140140A3
:1014500000780040007C004070B502460024002364
:101460000025002040F66A16B14200D100BFC1F34A
:10147000421501F01F03012606FA03F3012D02D1E4
:101480009689334006E0022D02D1168A334001E0EE
:10149000968A33400C12012606FA04F4168834406A
:1014A00013B10CB1012000E0002070BDF0B503467F
:1014B000002400260025002040F66A17B94200D11A
:1014C00000BF1846C1F3421401F01F06012707FAB6
:1014D00006F5012C01D10C3004E0022C01D11030B2
:1014E00000E014301AB107682F43076002E0076874
:1014F000AF430760F0BD00002DE9FF4705460E46EB
:101500000024A14600BFA046B08900B100BF2C8ACC
:1015100024F44054F08804432C82AC8941F20C60DE
:101520008443B08831890843718908430443AC81FE
:10153000AC8A24F44074B0890443AC826846FEF758
:10154000F1FF2048854202D01F48854202D1DDF8D4
:101550000C9001E0DDF80890A88900F4004040B14B
:1015600009EBC90000EB091031684900B0FBF1F745
:1015700007E009EBC90000EB091031688900B0FBF6
:10158000F1F76420B7FBF0F004012009642101FBAE
:101590001078A88900F4004040B1322000EBC80068
:1015A000B0FBF1F000F00700044308E0322000EB4C
:1015B00008106421B0FBF1F000F00F0004432C810F
:1015C000BDE8FF87001001400014014001468888F3
:1015D000C0F30800704700BFFEE72DED020B019835
:1015E00020F0004001909DED000B02B0704702E03A
:1015F00008C8121F08C1002AFAD17047704700209E
:1016000001E001C1121F002AFBD1704710B504464A
:101610006FF00400FFF7EAF9E11704EB5171C1F331
:10162000C701074A11701046007800EB4001C1EB7A
:10163000C0104FF6FF7101EAC0000249088010BDDA
:10164000700000207200002070B504464FF407704F
:1016500094FBF0F0C6B24FF4077094FBF0F100FB7E
:10166000114085B205E04FF4077000F009F8701ED4
:10167000C6B2002EF7D115B1284600F001F870BDB2
:101680000146114A12884A434FF0E0235A61002272
:101690009A611A46126942F001021A6100BF4FF0C6
:1016A000E022106900F001021AB100F48032002A31
:1016B000F5D04FF0E022126922F001024FF0E02352
:1016C0001A6100229A6170477200002010B504462A
:1016D00094ED000ABDEEC00A10EE100A10B194EDB0
:1016E000000A10BD211D0C460846FFF7EFFF00BFA2
:1016F000F7E700004FF4A060FEF7B8FEA820FFF760
:1017000085FF4FF4E13000F063F9FEF753FEA721A7
:1017100044F61F60FFF76CFA532144F61F60FFF791
:101720004DFB532144F61F60FFF7E6FAA72144F66C
:101730001F60FFF7A5F9532144F61F60FFF7F6F984
:10174000FFF73AF9D0E0DFED695A9FED695ADFED16
:10175000694A9FED694ADFED673A9FED683ADFED30
:10176000672A9FED672ADFED631A9FED651ADFEDAB
:10177000650A9FED620AFEF7C1FF6348FEF7DAFFD4
:101780004FF47A70FFF760FFADE0DFED5D5A9FED3B
:101790005B5ADFED5E4A9FED5E4ADFED5D3A9FEDFD
:1017A000553ADFED522A9FED562ADFED581A9FED8C
:1017B000581ADFED580A9FED4F0AFEF79FFF524877
:1017C000FEF7B8FFDFED4E5A9FED535ADFED4F4A5B
:1017D0009FED514ADFED4E3A9FED4F3ADFED432A40
:1017E0009FED4E2ADFED491A9FED411ADFED490AC0
:1017F0009FED3F0AFEF782FF4348FEF79BFFDFEDB8
:101800003F5A9FED455ADFED424A9FED434ADFEDD7
:101810003F3A9FED413ADFED422A9FED402ADFED4E
:101820003C1A9FED331ADFED320A9FED310AFEF7C5
:1018300065FF3548FEF77EFFDFED305A9FED2F5AEA
:10184000DFED334A9FED324ADFED303A9FED293A22
:10185000DFED332A9FED2A2ADFED2D1A9FED2C1A9A
:10186000DFED230A9FED230AFEF748FF2648FEF727
:1018700061FFDFED225A9FED1E5ADFED254A9FEDF5
:101880001C4ADFED223A9FED1D3ADFED252A9FED40
:10189000252ADFED1F1A9FED201ADFED150A9FEDB7
:1018A0001E0AFEF72BFF1848FEF744FFDFED145A1F
:1018B0009FED0F5ADFED154A9FED0D4ADFED143A0B
:1018C0009FED0E3ADFED092A9FED162ADFED0F1A84
:1018D0009FED111ADFED0F0A9FED0F0AFEF70EFFC5
:1018E0000948FEF727FF50E72DE700000000BE4241
:1018F00000008C420000B4420000E6420000A0421A
:101900000000DC420000AA427C0000200000964259
:101910000000D2420000C8420000F0420000024332
:10192000000082420000704270B52DED028B8CB039
:10193000064630216846FEF74AFC002500240020B8
:1019400009E006EB800191ED000A694601EB800198
:1019500081ED000A401C0C28F3DB00252FE0002459
:1019600028E0684600EB840090ED000A6946601CA0
:1019700001EB8000D0ED000AB4EEE00AF1EE10FABF
:1019800017DD684600EB840090ED000ABDEEC08ACA
:10199000601C01EB800090ED000A684600EB8400BB
:1019A00080ED000AB8EEC80A601C01EB800080EDF3
:1019B000000A641CC5F10B00A042D2DC6D1C0C2D8A
:1019C000CDDB6846FFF782FE0CB0BDEC028B70BD2C
:1019D00010B588B0044601210846FEF753FD0121E9
:1019E0001020FEF77FFD2B48FFF7BEFC07220921E0
:1019F0002948FEF7BAFC07220A212748FEF7B5FC62
:101A00004FF4C060069002208DF81C008DF81D0078
:101A100000208DF81E0001208DF81F0006A91E4829
:101A2000FEF75BFC02940020ADF80C00ADF80E0050
:101A3000ADF81000ADF814000C20ADF8120002A9AA
:101A40001448FFF759FD01211248FFF781FC0122DC
:101A500040F225510F48FFF729FD25208DF804009D
:101A600000208DF805008DF8060001208DF8070094
:101A700001A8FEF7BFFC42F2CF016320FFF728FA6E
:101A800000200649088000210548FFF75EFA08B0EB
:101A900010BD00000010014000000240780000204E
:101AA00000140040C41A0008000000207C00000060
:101AB000EE150008401B00087C000020C405000053
:101AC000FE1500080000C8420000AA420000B4420F
:101AD0000000B4420000B4420000A0420000C8422E
:101AE0000000B4420000BE420000B4420000B44214
:101AF0000000BE4264000000550000005A000000D3
:101B00005A0000005A00000050000000640000006D
:101B10005A0000005F0000005A0000005A00000058
:101B20005F00000000000000010203040102030442
:101B30000607080900000000000000000000000087
:040000050800018965
:00000001FF
