:020000040800F2
:10000000A00400209D010008E30F0008E30E000893
:10001000E10F0008D5020008911700080000000059
:10002000000000000000000000000000E70F0008D2
:10003000D702000800000000E50F0008E90F0008E3
:10004000B7010008B7010008B7010008B7010008B0
:10005000B7010008B7010008B7010008B7010008A0
:10006000B7010008B7010008B7010008B701000890
:10007000B7010008B7010008B7010008B701000880
:10008000B7010008B7010008B7010008B701000870
:10009000B7010008B7010008B7010008B701000860
:1000A000B7010008B7010008B7010008B701000850
:1000B000B7010008B7010008B7010008B701000840
:1000C000B7010008B7010008B7010008B701000830
:1000D000B7010008B7010008B7010008B701000820
:1000E000B7010008B7010008B7010008B701000810
:1000F000B7010008B7010008B7010008B701000800
:10010000B7010008B7010008B7010008B7010008EF
:10011000B7010008B7010008B7010008B7010008DF
:10012000B7010008B7010008B7010008B7010008CF
:10013000B7010008B7010008B7010008B7010008BF
:10014000B7010008B7010008B7010008B7010008AF
:10015000B7010008B7010008B7010008B70100089F
:10016000B7010008B7010008B7010008B70100088F
:10017000B7010008B7010008B7010008000000003F
:10018000B7010008B7010008DFF80CD000F090F8C4
:1001900000480047F9190008A004002006488047DD
:1001A00006480047FEE7FEE7FEE7FEE7FEE7FEE75C
:1001B000FEE7FEE7FEE7FEE7811000088901000880
:1001C0002DE9F05F0546002092469B46884606468C
:1001D000814640241BE0284641464746224600F01F
:1001E00057F853465A46C01A914110D31146184643
:1001F000224600F03EF82D1A67EB01084F462246D2
:100200000120002100F035F817EB00094E41201EB7
:10021000A4F10104DFDC484631462A464346BDE8E6
:10022000F09FD2B201E000F8012B491EFBD27047CB
:100230000022F6E710B513460A4604461946FFF7B2
:10024000F0FF204610BD30B50B46014600202022AD
:10025000012409E021FA02F59D4205D303FA02F5D3
:10026000491B04FA02F52844151EA2F10102F1DC33
:1002700030BD202A04DB203A00FA02F1002070474A
:100280009140C2F1200320FA03F3194390407047D4
:10029000202A04DB203A21FA02F00021704721FADB
:1002A00002F3D040C2F12002914008431946704742
:1002B000064C074D06E0E06840F0010394E80700B3
:1002C00098471034AC42F6D3FFF762FF001B0008DA
:1002D000201B0008FEE7704772B6FEE770B50446C3
:1002E00000F0F4F80546601C02D00448007804448D
:1002F00000F0ECF8401BA042FAD370BD08000020CB
:100300002DE9F84F00224FF0010803254FF00F0EA2
:100310000B6808FA02F42340A3426ED14E68012E06
:1003200005D0022E03D0112E01D0122E12D18668D4
:100330004FEA420C05FA0CF7BE43CF6807FA0CF7F8
:10034000374387604668A6430C79C4F30014944091
:1003500034434460C668570005FA07FC8C6826EAF7
:100360000C06BC403443C4604C68022C01D0122CF3
:1003700013D1D40800EB8404A346D4F8209054078A
:100380004FEAD46A0EFA0AF629EA06090E6906FA55
:100390000AF646EA0906CBF8206006680C7926EAD8
:1003A0000C0604F00304BC40344304604C68E400D1
:1003B00065D5364C266846F480462660246822F0CF
:1003C000030604F480440094314C3444A446D4F829
:1003D00008489607370F0EFA07F6B4432D4EB04281
:1003E00001D1002624E02C4EB04201D101261FE0AD
:1003F0002A4EB04202D102261AE040E0284EB04216
:1004000001D1032614E0274EB04201D104260FE0AB
:10041000254EB04201D105260AE0244EB04201D15A
:10042000062605E0224EB04201D1072600E008264C
:10043000BE402643CCF808681E4E34684F689C4383
:10044000FF0300D51C4334601A4C241D26684F68F6
:100450009E43BF0300D51E432660164E08363468FF
:100460004F689C43FF0200D51C433460114E0C368C
:1004700034684F689C43BF0200D51C433460521C53
:10048000102AFFF445AFBDE8F88F00004438024061
:100490000030014000000240000402400008024019
:1004A000000C0240001002400014024000180240FC
:1004B000001C0240003C01400069084000D00120BF
:1004C00070470AB1816170470904FBE70148806801
:1004D000704700000800002002488168027811443B
:1004E00081607047080000200B4810B5016841F496
:1004F00000710160016841F480610160016841F4AC
:1005000080710160032000F061F8002000F006F81F
:1005100000F024F8002010BD003C024070B50D4DE5
:1005200004464FF47A712878B1FBF0F00A49096863
:10053000B1FBF0F000F0F4FA48B9102C07D2002219
:100540002146501E00F022F800206C6070BD012092
:1005500070BD000008000020140000200A4808B503
:10056000016841F480410160006800F4804000901F
:100570000548001F016841F080510160006800F0EB
:100580008050009008BD000044380240F0B40E4B8B
:100590001B680C46C3F30223C3F10705042D00D9E1
:1005A0000425191D072901D2002300E0DB1E0126C6
:1005B00006FA05F1491E214099409E40761E1640DC
:1005C0003143F0BC01F0F6B80CED00E0064900F054
:1005D000070208684FF6FF03184040EA0220034A6A
:1005E00010430860704700000CED00E00000FA05C1
:1005F0002DE9F0470E46050065D0DFF81481D8F8E4
:100600000000F7B200F00F00B04207D288F8007087
:10061000D8F8000000F00F00B04254D128683D4CDB
:10062000810712D5400703D5206840F4E0502060D0
:100630002878000703D5206840F4604020602068D7
:10064000A96820F0F000084320602878C0072DD06A
:10065000304968680839012812D0022813D00328CD
:1006600011D00968890700292DDA216821F00301DA
:1006700001432160FFF72AFF814641F2883A0EE0EC
:1006800009688903EFE709688901ECE7FFF71EFFB6
:10069000A0EB0901514502D90320BDE8F08720688D
:1006A000696800F00C00B0EB810FEFD1D8F80010B2
:1006B000404601F00F01B14207D90770006800F011
:1006C0000F00B04201D00120E7E72878400705D5A8
:1006D0002068E96820F4E05008432060287800078B
:1006E00006D52068296920F4604040EAC1002060F6
:1006F00000F038F82168084AC1F30311515CC84082
:100700000649086006480068FFF708FF0020C4E7B4
:10071000003C024008380240E81A0008140000209B
:100720000C0000200448054900680968044AC1F328
:100730008221515CC84070471400002008380240F4
:10074000F81A00080448054900680968044AC1F31A
:100750004231515CC8407047140000200838024004
:10076000F81A0008154810B5006810F00C0214487B
:1007700013D04110042A0FD0082A0ED10F4C241F89
:100780002268236802F03F025B0207D52068C0F3AD
:100790008810A0FB010106E0084610BD2168C1F3E6
:1007A0008811A1FB00010023FFF70AFD2168C1F3B6
:1007B0000141491C4900B0FBF1F010BD083802406E
:1007C0000024F4002DE9F84F040076D02078DFF8FB
:1007D00038A3CE4DC00749D0DAF800105046C1F317
:1007E0008101012908D00068C0F3810002280AD1E4
:1007F000281D0068400206D52868800336D5606849
:100800000028E2D032E06068B0F5803F10D0B0F54B
:10081000A02F286810D020F480302860286820F4A9
:10082000802028606068A0B1FFF750FE06460CE00B
:10083000286840F48030F4E740F480202860F7E72F
:10084000FFF744FE801B642873D828688003F7D51F
:100850000CE0FFF73BFE064605E000BFFFF736FE63
:10086000801B6428F0D828688003F7D42078DFF84C
:10087000A08280074FF000093ED5DAF800105046FC
:1008800011F00C0F09D00068C0F3810002280BD1D1
:100890009D48001F0068400206D42868800715D5CF
:1008A000E068012809D111E0E068B8B10120C8F87A
:1008B0000000FFF70BFE064605E020E1FFF706FE0D
:1008C000801B0228C0D828688007F7D528682169CE
:1008D00020F0F80040EAC10028600DE0C8F8009060
:1008E000FFF7F4FD064604E0FFF7F0FD801B022849
:1008F0001FD828688007F7D42078000722D5824EB9
:10090000844861696C3671B101210160FFF7DEFD39
:10091000074604E0FFF7DAFDC01B022809D830685B
:100920008007F7D50EE0C0F80090FFF7CFFD07462F
:1009300005E082E0FFF7CAFDC01B02287DD83068C1
:100940008007F7D42078400768D5DFF8BCB10027CE
:100950000BF1380BDBF80000C0000BD4DBF8001003
:1009600041F08051CBF80010DBF80000012700F0C7
:1009700080500090684E3068C00510D4306840F454
:1009800080703060FFF7A2FD009005E0FFF79EFD4C
:100990000099401A022850D83068C005F6D55A4E42
:1009A000A068683601280FD00528306810D020F0E4
:1009B00001003060306820F004003060A068B8B1F9
:1009C000FFF784FD00900FE0306840F00100F4E78D
:1009D00040F004003060F7E7FFF778FD0099411A16
:1009E00041F28830814266D830688007F4D50EE045
:1009F000FFF76CFD009007E0FFF768FD0099411AD2
:100A000041F28830814256D830688007F4D42FB143
:100A1000DBF8001021F08051CBF80010A069D0B3B2
:100A2000DAF800205146C2F38102022A4AD0022895
:100A3000484607D0C8F8600000E03CE0FFF746FDFC
:100A400004463BE04746C8F86000FFF73FFD064616
:100A500005E000BFFFF73AFD801B02282BD828686D
:100A60008001F7D4D4E907010843A16A2B4A490859
:100A700002EB0141626A41EA8211084394F82C10AA
:100A800040EA01612048001F016001203866FFF73D
:100A90001DFD044605E034E0FFF718FD001B0228A9
:100AA00009D828688001F7D52BE000BFFFF70EFDBD
:100AB000001B022802D90320BDE8F88F28688001B6
:100AC000F4D41EE00128F7D00868E26900F4800140
:100AD000914214D1226A00F03F0191420FD147F6B2
:100AE000C071626A0140914209D1A26A00F44031AA
:100AF000914204D1E16A00F07060884201D0012087
:100B0000DAE70020D8E70000083802400038024049
:100B100000004742800E4742007000400000FFFF87
:100B200010B5401EB0F1807F01D3012010BD4FF001
:100B3000E02460610F21601700F03CFE0020A061FE
:100B400007202061002010BD70B590F83C20012ADC
:100B500032D0012480F83C40022280F83D20036816
:100B60005A689D6822F070060A6832435A60134B37
:100B700002689A4214D0B2F1804F11D0104B9A42C1
:100B80000ED0104B9A420BD00F4B9A4208D00F4B0D
:100B90009A4205D00E4B9A4202D00E4B9A4204D193
:100BA000496825F080031943916080F83D40002199
:100BB00080F83C10084670BD022070BD0000014066
:100BC0000004004000080040000C00400004014008
:100BD000004001400018004010B5040003D094F814
:100BE0003D0010B107E0012010BD002084F83C005A
:100BF000204600F00DF8022084F83D00211D2068F9
:100C000000F066FC012084F83D00002010BD0000CB
:100C100008B50068B0F1804F08D10548016841F07F
:100C200001010160006800F00100009008BD0000B3
:100C300040380240022180F83D1001688A6802F0C5
:100C40000702062A03D00A6842F001020A60012165
:100C500080F83D1000207047022180F83D100168A7
:100C60000A6A41F211131A4207D10A6A9B101A420A
:100C700003D10A6822F001020A60012180F83D10C8
:100C80000020704770B5044690F83C00012817D04A
:100C9000012584F83C50022084F83D0020688268D9
:100CA00022F0770222F47F4282600868502830D018
:100CB0000DDC20284DD005DC98B310283BD148E04E
:100CC000022070BD302844D0402834D139E060285B
:100CD00028D0702806D0B0F5805F2CD0B0F5005F2A
:100CE00029D10AE0CB68D1E90121206800F054FC49
:100CF0002068816841F0770109E0CB68D1E90121E2
:100D0000206800F049FC2068816841F480418160DE
:100D100011E0CA684968206800F050FC5021206842
:100D200007E016E0CA684968206800F058FC6021B6
:100D3000206800F03BFC84F83D50002084F83C0023
:100D400070BDCA684968206800F038FC40212068FE
:100D5000EFE7226801461046EBE770B5040004D0C7
:100D600094F83900002510B106E0012070BD84F828
:100D70003850204600F022F8242084F839002068FA
:100D8000C16821F40051C160204600F03BFC20689E
:100D9000016921F4904101612068416921F02A0133
:100DA00041612068C16841F40051C160E5632020C1
:100DB00084F8390084F83A00002070BD10B586B080
:100DC000044614216846FFF733FA14492068884224
:100DD00021D11348016841F010010160006800F062
:100DE000100005900E481438016841F001010160BF
:100DF0000068694600F0010005904FF4C060009063
:100E0000022001900120029003200390072004900B
:100E10000448FFF775FA06B010BD0000001001404D
:100E200044380240000002402DE9F843044690F89F
:100E300039001F4616460D46202850D1B5B1AEB137
:100E400094F8380001284AD0012084F838004FF087
:100E50000008C4F83C80212084F83900FFF736FBF5
:100E6000A6848146E68484F8388026E00120BDE827
:100E7000F883E08C401EE084A0684B46B0F5805FAC
:100E80004FF000024FF080012046009703D000F0A1
:100E90004DFCE8B90DE000F049FCC8B9288821688C
:100EA000C0F308004860206908B16D1C05E0AD1C66
:100EB00003E0216815F8010B4860E08C0028D8D1C8
:100EC0004B46002240212046009700F02FFC08B13D
:100ED0000320CCE7202084F839000020C7E7022057
:100EE000C5E7FEE710B586B014216846FFF7A0F904
:100EF0001248016841F080010160016801F0800141
:100F00000591016841F00101016000680C4C00F09E
:100F1000010005900022C0212046FFF7D2FAC02030
:100F20000090112001900120029003200390694657
:100F30002046FFF7E5F906B010BD0000303802404A
:100F40000000024010B586B00024164800940194B9
:100F50000294039404944FF080410594016053215E
:100F6000C0E901140121C0E903148461FFF734FED4
:100F700008B1FFF7B1F94FF4805000906946094875
:100F8000FFF780FE08B1FFF7A7F9049404A905480C
:100F90000594FFF7D9FD002801D0FFF79DF906B0B1
:100FA00010BD00001C0000200C4810B50A4901606B
:100FB0004FF4E1314160002181600C22C160C0E941
:100FC00004128161C161FFF7C8FE002803D0BDE8AB
:100FD0001040FFF781B910BD001001405C000020F7
:100FE000FEE7704770477047FFF776BA30B593B0A9
:100FF00030216846FFF71CF914210CA8FFF718F9F7
:101000001D480025016841F080510160006800F032
:10101000805011901948016841F4804101600068D6
:10102000022400F4804011900120009000040190FF
:101030008001CDE9064008AA0420A82182E8130017
:101040000B906846FFF7BEFB08B172B6FEE70CA92D
:101050000F2081E831004FF4A0500F904FF48050E2
:10106000109005210CA8FFF7C3FA002801D072B632
:10107000FEE713B030BD0000403802400070004071
:101080000548016841F47001016003494FF00060B8
:10109000803908607047000088ED00E008B5012045
:1010A0008DF8000002466946002000F0F4F90320A4
:1010B0008DF8000001226946002000F0ECF908BD1F
:1010C00008B5002100910222694600F0C0F9BDF880
:1010D000000008BD38B5044601208DF80000024626
:1010E0006946132000F0B3F99DF80000C00710D046
:1010F0001420FFF7E5FF20801620FFF7E1FF608056
:101100001820FFF7DDFFA0801A20FFF7D9FFE0804D
:10111000012038BD10B5124C002240212046FFF7B7
:10112000D0F9206820F0C0002060206840F0400026
:101130002060002280212046FFF7C3F9142000F030
:1011400035FC012240212046FFF7BBF9142000F0B6
:101150002DFC20460022BDE810404021FFF7B1B928
:101160000000024010B5124C002240212046FFF73B
:10117000A8F9206820F0C0002060206840F04000FE
:101180002060012280212046FFF79BF9142000F007
:101190000DFC012240212046FFF793F9142000F0B6
:1011A00005FC20460022BDE810404021FFF789B928
:1011B000000002402DE9F041984615460E460746CC
:1011C000002400F089F8012000EB4700C0B200F0D5
:1011D0004DF800F0D1F86F1E09E0BC4201D10020AB
:1011E00000E0012000F00EF83055641CE4B2AC427F
:1011F000F3D3B8F1010F03D1BDE8F04100F094B88A
:10120000BDE8F0812DE9F041174C07460025206824
:1012100020F0C0002060206820602E46002240217F
:101220002046FFF74EF9142000F0C0FB01224021B8
:101230002046FFF746F96806050E80212046FFF795
:101240003BF908B16D1CEDB20A2000F0AFFB761C33
:10125000F6B2082EE2D327B1FFF75CFF2846BDE8BF
:10126000F081FFF77FFFF9E70000024070B5194EEB
:1012700005463046316821F0C0013160316841F0E7
:101280004001316000224021FFF71BF900242806AD
:1012900001D5012200E0002280213046FFF711F93C
:1012A0006806050E142000F081FB01224021304623
:1012B000FFF707F9142000F079FB002240213046A7
:1012C000FFF7FFF8142000F071FB641CE4B2082C57
:1012D000DDD370BD0000024010B5124C206820F034
:1012E000C0002060206840F0400020600122802182
:1012F0002046FFF7E6F8012240212046FFF7E1F8FB
:10130000282000F053FB002280212046FFF7D9F867
:10131000282000F04BFB20460022BDE81040402171
:10132000FFF7CFB80000024010B5124C206820F043
:10133000C0002060206840F0400020600022402172
:101340002046FFF7BEF8002280212046FFF7B9F8BB
:10135000282000F02BFB012240212046FFF7B1F8A6
:10136000012280212046FFF7ACF8BDE8104028207C
:1013700000F01CBB0000024070B5164C0025206830
:1013800020F0C000206020682060012280212046DB
:10139000FFF797F80A2000F009FB012240212046C0
:1013A000FFF78FF80A2000F001FB06E06D1CFA2D14
:1013B00003D9FFF7B9FF012070BD80212046FFF758
:1013C0007BF80028F2D1002240212046FFF779F86F
:1013D000002070BD000002402DE9F04198461546FE
:1013E0000E4607460024FFF777FF7806000EFFF74A
:1013F0003DFFFFF7C1FF06E0305DFFF737FFFFF766
:10140000BBFF641CE4B2AC42F6D3B8F1010F03D1C8
:10141000BDE8F041FFF788BFBDE8F08108B50020C6
:101420008DF8000001226946122000F010F89DF8A6
:101430000000442801D0002008BDFF2000F024F85F
:10144000032000F01AF8FFF729FE012008BD37B588
:1014500014469DF800000D4640F080008DF8000015
:101460000023012269462920FFF7B6FF0123224607
:1014700029462920FFF79EFE3EBD01B5012269469F
:101480000F2000F008F808BD01B50122694610469A
:1014900000F001F808BD3EB50023009340F0800045
:1014A000019302938DF8000001206B4605E00C18B3
:1014B00014F8014C1C54401CC0B29042F7D9521C85
:1014C000D2B2012369462920FFF786FF3EBD000006
:1014D000F0B50268254C264D264E274F274B4FF07E
:1014E000804CA04209D0604507D0A84205D0B04248
:1014F00003D0B84201D0984204D122F0700E4A685D
:1015000042EA0E02A0421BD0604519D0A84217D073
:10151000B04215D0B84213D0984211D0184DA8420D
:101520000ED0184DA8420BD0174DA84208D0174D29
:10153000A84205D0164DA84202D0164DA84203D1AC
:1015400022F44075CA682A434D6922F080022A437A
:1015500002608A68C2620A688262A04201D0984230
:1015600001D10969016301214161F0BD0000014021
:101570000004004000080040000C0040000401404E
:101580000040014000440140004801400018004074
:10159000001C00400020004010B5846842EA03228D
:1015A00024F47F440A432243826010BD826822F003
:1015B00070020A4342F007018160704710B5036A68
:1015C000046A24F001040462846924F0F00444EA0B
:1015D000021423F00A020A438461026210BD10B5AE
:1015E000036A23F0100303628369046A23F47043DF
:1015F00043EA023224F0A00343EA0111826101624E
:1016000010BD00002DE9F041044600680169E26860
:1016100021F44051114301612169A068E269084346
:101620006169114308432168CA6849F20C639A430F
:101630000243CA6020684169A26921F440711143E4
:101640004161E069192764253226B0F5004F354A1B
:10165000354920684FF0000806D0884201D09042FA
:1016600036D1FFF76FF835E0884201D0904202D1C1
:10167000FFF768F801E0FFF755F861684A18A0FB2A
:10168000070148EB0803FEF79BFD0146B0FBF5F0B0
:101690000201B1FBF5F06FF01803584301EB800035
:1016A00006EBC000B0FBF5F000F0F80002EB4002E2
:1016B000B1FBF5F0584301EB800006EBC000B0FB36
:1016C000F5F000F00700216810448860BDE8F08163
:1016D000FFF728F861688B0F8A00A0FB0701FEF76F
:1016E0006FFD0146B0FBF5F06FF01802504301EBBF
:1016F000800006EB0010B0FBF5F000F0F002B1FB4B
:10170000F5F002EB0012B1FBF5F06FF0180358434F
:1017100001EB800006EB0010B0FBF5F000F00F00CD
:10172000D1E7000000140140001001402DE9F04114
:10173000984617460E460446069D1DE0681C1BD0C1
:101740002DB1FEF7C3FEA0EB0800A84214D9206813
:10175000C16821F4D071C1602068416921F00101A4
:101760004161202084F8390084F83A00002084F890
:1017700038000320BDE8F0812068006836EA0000E8
:1017800004D00020B842D9D00020F3E70120F9E7C7
:10179000FEE700000FB4054B10B503A9044A0298F8
:1017A00000F028F810BC5DF814FB0000DD190008FB
:1017B000180000200907090E002804DB00F1E020D2
:1017C00080F80014704700F00F0000F1E02080F86E
:1017D000141D704702E008C8121F08C1002AFAD180
:1017E00070477047002001E001C1121F002AFBD1A1
:1017F000704700002DE9FF4F8BB09A460F46054613
:10180000002606E025280BD052460D9990476D1C06
:10181000761C28780028F5D10FB03046BDE8F08F4F
:101820000024A0460122604900E0044315F8013F6E
:10183000203B02FA03F00842F7D128782E2817D16E
:1018400015F8010F44F004042A280ED06FF02F027F
:101850002878A0F1300109290AD808EB880102EBA9
:10186000410100EB01086D1CF2E757F8048B6D1C79
:10187000287869283ED006DC0028CDD063280BD01C
:10188000642804D136E0732810D075284BD0524616
:101890000D999047761C85E017F8040B8DF8000031
:1018A00000208DF80100E946012003E057F8049B71
:1018B0004FF0FF3061074FF0000401D40AE0641CD0
:1018C00044450DDA8442FADB19F804100029F6D1F8
:1018D00006E0641C8442FCDB19F804100029F8D1EE
:1018E000264404E019F8010B52460D999047641EF6
:1018F000F8D257E001CF4FF00A0B002802DA40423D
:101900002D2102E0210504D52B218DF82410012181
:1019100003E0E10705D02021F7E70DF12009089148
:101920000CE00021F9E701CF4FF00A0BF9E7594627
:10193000FEF789FC01F1300209F8012D0028F6D1EB
:10194000ADEB090000F1200B600701D44FF0010856
:10195000D84502DDA8EB0B0000E000208046002403
:1019600006E009A85246005D0D999047641C761C5C
:1019700008988442F5DB04E0302052460D999047E8
:10198000761CB8F10001A8F10108F5DC05E019F8B2
:10199000010B52460D999047761CBBF10001ABF14B
:1019A000010BF4DC6D1C34E70928010070B54FF61B
:1019B000FA75281A84B20848FFF73CF9064801680E
:1019C0004C62006801E0416A8CB2AC42FBD3BDE8D6
:1019D00070400148FFF740B91C00002008B5022301
:1019E0008DF80000012269460248FFF71DFA9DF8B4
:1019F000000008BD5C000020FEF776FDFFF7F6FA58
:101A0000FFF770FAFFF79EFAFFF7CEFA1FA121A0A9
:101A1000FFF7C0FE1DA11FA0FFF7BCFE1BA11DA06C
:101A2000FFF7B8FE19A11BA0FFF7B4FE17A119A07C
:101A3000FFF7B0FE15A117A0FFF7ACFE13A115A08C
:101A4000FFF7A8FE11A113A0FFF7A4FE4FF47A75CB
:101A50002846FFF7ABFF6800FFF7A8FF03E011A1DE
:101A600018A0FFF797FEFFF7D9FC0028F7D0164C17
:101A70001548FFF72FFBE388A288618813A0FFF7C2
:101A800089FE2846FEF72AFCF2E7000068656C6CC8
:101A90006F000000646174612069733A202573202F
:101AA00000000000736F7272792C20492068617603
:101AB000656E277420666F756E64207463733334AB
:101AC0003732350025732000000000207220697332
:101AD0002025642C20672069732025642C20622037
:101AE00069732025640D0A0000000000000000005A
:101AF00001020304060708090000000001020304B4
:101B0000201B0008000000201C000000D417000863
:101B10003C1B00081C00002084040000E41700089F
:101B200000000000000000000100000010000000A4
:0C1B3000000000000024F4000000000091
:040000050800018965
:00000001FF
