:020000040800F2
:10000000A806002029020008F5030008B50300082F
:10001000F1030008D9020008450E000800000000A6
:10002000000000000000000000000000D1050008F2
:10003000DD0200080000000085040008E906000851
:10004000430200084302000843020008430200087C
:10005000430200084302000843020008430200086C
:10006000430200084302000843020008430200085C
:10007000430200084302000843020008430200084C
:10008000430200084302000843020008430200083C
:10009000430200084302000843020008430200082C
:1000A000430200084302000843020008430200081C
:1000B000430200084302000843020008430200080C
:1000C00043020008430200084302000843020008FC
:1000D00043020008430200084302000843020008EC
:1000E00043020008430200084302000843020008DC
:1000F00043020008430200084302000843020008CC
:1001000043020008430200084302000843020008BB
:100110004302000843020008430200087109000876
:10012000430200084302000843020008430200089B
:10013000430200084302000843020008430200088B
:10014000430200084302000843020008430200087B
:10015000430200084302000843020008430200086B
:10016000430200084302000843020008430200085B
:10017000430200084302000843020008430200084B
:10018000430200084302000800F002F800F03CF8C7
:100190000AA090E8000C82448344AAF10107DA45E2
:1001A00001D100F031F8AFF2090EBAE80F0013F0F8
:1001B000010F18BFFB1A43F001031847701200002B
:1001C00090120000103A24BF78C878C1FAD85207BC
:1001D00024BF30C830C144BF04680C6070470000C1
:1001E0000023002400250026103A28BF78C1FBD840
:1001F000520728BF30C148BF0B6070471FB501F0E0
:100200000FF91FBD10B510BD00F033F81146FFF710
:10021000F5FF00F08FFF00F051F803B4FFF7F2FF95
:1002200003BC00F011FE0000094880470948004760
:10023000FEE7FEE7FEE7FEE7FEE7FEE7FEE7FEE796
:10024000FEE7FEE704480549054A064B70470000F3
:10025000ED06000889010008A8000020A80600207B
:10026000A8020020A802002070477047704770471E
:100270007047754600F02CF8AE46050069465346B7
:1002800020F00700854618B020B5FFF7DBFFBDE87A
:1002900020404FF000064FF000074FF000084FF0ED
:1002A000000B21F00701AC46ACE8C009ACE8C0097E
:1002B000ACE8C009ACE8C0098D46704710B50446EB
:1002C000AFF300802046BDE81040FFF7A6BF000056
:1002D000004870474400002000BFFEE77047F0B5BB
:1002E0000A4600210023002400BF3DE0012505FA55
:1002F00001F3156805EA03049C4234D105684F00F8
:100300000326BE40B543056015794E00B54006682A
:10031000354305601579012D02D01579022D16D1CE
:1003200085684F000326BE40B543856055794E0071
:10033000B540866835438560456801268E40B543E3
:100340004560456896798E40B6B235434560C568CC
:100350004F000326BE40B543C560D5794E00B54079
:10036000C6683543C560491C1029BFD3F0BDF0B540
:10037000002300244D07ED0E02FA05F3CE1000F124
:10038000200555F826504E07F70E0F26BE40B54300
:10039000CF1000F1200646F82750CE1000F12005BE
:1003A00055F8265045EA0304CE1000F1200545F823
:1003B0002640F0BD00BFFEE71CB50121082000F07B
:1003C00063F84FF40040009001208DF804000020F5
:1003D0008DF8060003208DF8050001208DF8070038
:1003E00069460248FFF77BFF1CBD0000000C02407D
:1003F00000BFFEE77047000070B5002100230F2208
:10040000C4781CB3174C246804F4E064C4F5E064B9
:10041000C4F30721C1F10404E3B20A4144789C40CB
:10042000E1B28478144021430C07210E0E4C05786C
:100430006155047804F01F050124AC4005786D1166
:10044000AD0005F1E025C5F8004109E0047804F0AD
:100450001F050124AC40054D0678761145F826406D
:1004600070BD00000CED00E000E400E080E100E081
:1004700002490143024A1160704700000000FA057A
:100480000CED00E07047000029B1064A12680243F3
:10049000044B1A6004E0034A12688243014B1A605D
:1004A000704700003038024029B1064A1268024302
:1004B000044B1A6004E0034A12688243014B1A603D
:1004C000704700004038024029B1064A12680243D2
:1004D000044B1A6004E0034A12688243014B1A601D
:1004E0007047000044380240F0B50021002200248B
:1004F000022500260223324F3F6807F00C0121B18C
:10050000042905D0082937D105E02E4F076036E0D1
:100510002D4F076033E02A4F3F1F3F68C7F38056D7
:10052000274F3F1F3F6807F03F036EB1264FB7FBD1
:10053000F3F7DFF88CC0ACF1040CDCF800C0CCF3AE
:10054000881C07FB0CF40CE01E4FB7FBF3F7DFF839
:1005500070C0ACF1040CDCF800C0CCF3881C07FBC5
:100560000CF4174F3F1F3F68C7F301477F1C7D0006
:10057000B4FBF5F7076002E0124F076000BF00BF51
:100580000F4F3F6807F0F0010909104F7A5C0768C8
:10059000D74047600A4F3F6807F4E051890A0B4F84
:1005A0007A5C4768D7408760054F3F6807F4604131
:1005B000490B064F7A5C4768D740C760F0BD000022
:1005C000083802400024F40000127A0028000020BD
:1005D000704700000CB5002001900090344800687E
:1005E00040F480303249086000BF3148006800F4B0
:1005F000003000900198401C0190009818B90198B3
:10060000B0F5A04FF1D12A48006800F4003010B1D5
:100610000120009001E0002000900098012846D1C0
:1006200023484030006840F0805021494031086044
:100630002048006840F440401E4908601C480830CB
:1006400000681B49083108600846006840F4004013
:1006500008600846006840F4A05008601648091F6A
:100660000860081F006840F08070091F086000BF24
:100670000F48006800F000700028F9D040F20570C3
:100680000E4908600A480830006820F00300084955
:10069000083108600846006840F00200086000BFAA
:1006A00003480830006800F00C000828F8D10CBDA1
:1006B000003802400070004008544007003C0240EF
:1006C000042808D14FF0E021096941F004014FF0FE
:1006D000E022116107E04FF0E021096921F00401F7
:1006E0004FF0E022116170477047000010B51548C7
:1006F000006840F47000134908601348006840F037
:1007000001001149086000200F49083108600E48B7
:1007100000680E4908400C4908600D48091D086032
:10072000081F006820F48020091F08600020064987
:100730000C310860FFF74EFF4FF00060014980392F
:10074000086010BD88ED00E000380240FFFFF6FEB3
:100750001030002430B58BB004460D46012148040A
:10076000FFF7B2FE01210220FFF78EFE03220821CF
:100770002148FFF7FCFD4FF48070099002208DF8AE
:10078000280003208DF8290000208DF82A00012080
:100790008DF82B0009A91848FFF7A1FDA8B2ADF804
:1007A00018000020ADF81A000794ADF8200006A943
:1007B000124800F069FA6020ADF804000120ADF89D
:1007C000060040F6C41003900020ADF81000ADF80C
:1007D000140001A9094800F0ABF90821074800F00E
:1007E000E5F90121054800F06DF90121034800F009
:1007F00078F90BB030BD0000000402400044014015
:1008000030B58BB004460D4601218804FFF75CFE2D
:1008100001210220FFF738FE032209212148FFF7BA
:10082000A6FD4FF40070099002208DF828000320E7
:100830008DF8290000208DF82A0001208DF82B006A
:1008400009A91848FFF74BFDA8B2ADF81800002021
:10085000ADF81A000794ADF8200006A9124800F080
:1008600013FA6020ADF804000120ADF8060040F650
:10087000C41003900020ADF81000ADF8140001A9D9
:10088000094800F055F90821074800F08FF90121C7
:10089000054800F017F90121034800F022F90BB0D8
:1008A00030BD0000000402400048014030B58BB06C
:1008B00004460D4601214020FFF7F6FD01210220EC
:1008C000FFF7E2FD09220E212748FFF750FD09221C
:1008D0000F212548FFF74BFD4FF4404009900220BF
:1008E0008DF8280003208DF8290000208DF82A00BB
:1008F00001208DF82B0009A91B48FFF7F0FCA8B2D6
:10090000ADF818000020ADF81A000794ADF82000EB
:1009100006A9164800F0B8F96020ADF804000120DF
:10092000ADF8060040F6C41003900020ADF81000AA
:10093000ADF8140001A90D4800F0FAF808210B48A1
:1009400000F034F901A9094800F03AF908210748F4
:1009500000F088F90121054800F0B4F801210348AE
:1009600000F0BFF80BB030BD00040240001800409A
:1009700010B50121094800F0C0F868B108480088A6
:1009800040F40040064908800121044800F0A6F820
:100990000021024800F0A5F810BD0000001400403E
:1009A000400000207FB505460C4601212020FFF7BE
:1009B0007BFD0195ADF800400020ADF80800ADF8D2
:1009C000020069460D4800F05FF9012211460B480C
:1009D00000F0A4F80121094800F083F837208DF8D1
:1009E0000C0000208DF80D0002208DF80E00012073
:1009F0008DF80F0003A8FFF7FFFC7FBD0014004037
:100A000030B58BB004460D4601210804FFF75CFDAC
:100A100001211020FFF738FD032205212748FFF7A9
:100A2000A6FC032206212548FFF7A1FC60200990BF
:100A300002208DF8280003208DF8290000208DF871
:100A40002A0001208DF82B0009A91C48FFF747FC5C
:100A5000A8B2ADF818000020ADF81A000794ADF860
:100A6000200006A9164800F00FF96020ADF8040038
:100A70000120ADF8060040F6C41003900020ADF848
:100A80001000ADF8140001A90D4800F051F808213C
:100A90000B4800F08BF801A9094800F091F80821F3
:100AA000074800F0DFF80121054800F00BF80121AC
:100AB000034800F016F80BB030BD000000100240F3
:100AC0000040014021B1028842F08002028004E02F
:100AD00002884FF67F731A4002807047CA43028231
:100AE000704721B1028842F00102028004E00288CE
:100AF0004FF6FE731A400280704730B50246002060
:100B000000230024158A05EA0103958905EA0104FA
:100B100013B10CB1012000E0002030BD1AB183896F
:100B20000B43838102E083898B43838170470000FC
:100B300070B5002400220023058C4FF6FE76354068
:100B40000584028C8388048B4FF68F752C40B51E6C
:100B50002C400D882C43751E2A408D892A434D88D0
:100B60002A43104DA84202D00F4DA84213D14FF690
:100B7000F7752A40CD892A434FF6FB752A408D88A8
:100B80002A434FF6FF652B404FF6FF552B400D8A49
:100B90002B434D8A2B43838004838D6845630284F5
:100BA00070BD000000000140000401400A46002121
:100BB000018B4FF6F7731940114301837047000012
:100BC00070B5002400220023058C4FF6EF763540E7
:100BD0000584028C8388048B48F6FF752C404FF601
:100BE000FF452C400D884FF6FF7606EA05252C437D
:100BF0004FF6DF752A408D8906EA05152A434D8890
:100C000006EA05152A43154DA84202D0144DA84204
:100C10001DD14FF67F752A40CD894FF6FF7606EA43
:100C200005152A434FF6BF752A408D8806EA05153B
:100C30002A434FF6FF352B404FF2FF752B400D8AAC
:100C400006EA85052B434D8A06EA85052B438380FA
:100C500004838D688563028470BD0000000001403C
:100C6000000401400A460021018B4FF2FF73194036
:100C70004FF6FF7303EA0223194301837047416370
:100C8000704781637047000000220288184B984229
:100C90000ED0184B98420BD0B0F1804F08D0164BB5
:100CA000984205D0154B984202D0154B984204D17A
:100CB0004FF68F731A404B881A43124B984207D055
:100CC000114B984204D04FF6FF431A400B891A4348
:100CD00002804B68C3620B880385054B984202D0A3
:100CE000044B984201D18B7A03860123838270479B
:100CF00000000140000401400004004000080040E2
:100D0000000C0040001000400014004021B1828916
:100D100042F40052828104E082894DF6FF731A404A
:100D200082817047F0B5034600240026002500208C
:100D300040F66A17B94200D100BF1846C1F3421409
:100D400001F01F06012707FA06F5012C01D10C302E
:100D500004E0022C01D1103000E014301AB1076811
:100D60002F43076002E00768AF430760F0BD000053
:100D70002DE9FF4705460E460024A14600BFA046C8
:100D8000B08900B100BF2C8A24F44054F088044399
:100D90002C82AC8941F20C608443B08831890843CD
:100DA000718908430443AC81AC8A24F44074B0894F
:100DB0000443AC826846FFF797FB2048854202D087
:100DC0001F48854202D1DDF80C9001E0DDF8089063
:100DD000A88900F4004040B109EBC90000EB0910FC
:100DE00031684900B0FBF1F707E009EBC90000EBFF
:100DF000091031688900B0FBF1F76420B7FBF0F00F
:100E000004012009642101FB1078A88900F4004046
:100E100040B1322000EBC800B0FBF1F000F0070059
:100E2000044308E0322000EB08106421B0FBF1F02D
:100E300000F00F0004432C81BDE8FF870010014043
:100E40000014014000BFFEE700BF704710B51E4808
:100E500090ED000ABCEEC00A10EE101A1B48FFF716
:100E600010FF194890ED010ABCEEC00A10EE101AEE
:100E70001648FFF704FF144890ED020ABCEEC00AC2
:100E800010EE101A1248FFF7FAFE0F4890ED030A11
:100E9000BCEEC00A10EE101A0E48FFF7F0FE0A482A
:100EA00090ED040ABCEEC00A10EE101A0A48FFF7D3
:100EB000E8FE054890ED050ABCEEC00A10EE101AD7
:100EC0000548FFF7DCFE10BD0800002000180040B8
:100ED00000480140004401400040014070B52DED44
:100EE000088B8CB0B0EE408AF0EE608AB0EE419A8A
:100EF000F0EE619AB0EE42AAF0EE62AAB0EE43BA0A
:100F000006468DED068ACDED078A8DED089ACDED6A
:100F1000099A8DED0AAACDED0BAA002013E006A9CF
:100F200001EB800191ED000A4C4901EB8001D1ED0C
:100F3000000A30EE600AC0EE0B0A694601EB800140
:100F4000C1ED000A401C0628E9DB002575E0002001
:100F500021E0694601EB800191ED000AB5EEC00A7F
:100F6000F1EE10FA05D106A901EB800191ED000A1E
:100F70000BE03A4901EB800191ED000A694601EB73
:100F80008001D1ED000A30EE200A344901EB8001E6
:100F900081ED000A401C0628DBDB00244AE04CB946
:100FA0002E4890ED000ABCEEC00A10EE101A2C4834
:100FB000FFF767FE012C09D1284890ED010ABCEE2D
:100FC000C00A10EE101A2648FFF759FE022C09D16C
:100FD000224890ED020ABCEEC00A10EE101A214819
:100FE000FFF74DFE032C09D11C4890ED030ABCEE1F
:100FF000C00A10EE101A1C48FFF741FE042C09D15C
:10100000164890ED040ABCEEC00A10EE101A1748FC
:10101000FFF737FE052C09D1104890ED050ABCEE0C
:10102000C00A10EE101A1148FFF729FEB0B200F006
:101030003FF8641C062CB2DB6D1C00EE105AB8EEB3
:10104000C00A0B48D0ED000AB4EEE00AF1EE10FA47
:10105000FFF47DAF0CB0BDEC088B70BD0800002024
:101060000018004000480140004401400040014099
:101070002000002010B504466FF00400FFF720FBAD
:10108000E11704EB5171C1F3C701074A1170104613
:10109000007800EB4001C1EBC0104FF6FF7101EA90
:1010A000C0000249088010BD380000203A0000202E
:1010B00070B504464FF4077094FBF0F0C6B24FF4DD
:1010C000077094FBF0F100FB114085B205E04FF48E
:1010D000077000F009F8701EC6B2002EF7D115B1E6
:1010E000284600F001F870BD0146114A12884A43B3
:1010F0004FF0E0235A6100229A611A46126942F0C9
:1011000001021A6100BF4FF0E022106900F00102F5
:101110001AB100F48032002AF5D04FF0E0221269B3
:1011200022F001024FF0E0231A6100229A61704719
:101130003A00002000BF00BFA820FFF79BFF4FF43C
:10114000E13000F001F9FFF737F9532144F61F6051
:10115000FFF7ACFBA72144F61F60FFF751FBA72167
:1011600044F61F60FFF7F6FAA72144F61F60FFF769
:1011700047FCC3E0FFF76AFE61480068614991EDF2
:10118000003ADFED612A9FED612ADFED611A9FEDE4
:10119000611ADFED610A9FED610AFFF79FFE584873
:1011A0000068584991ED003ADFED572A9FED572A24
:1011B000DFED571A9FED571ADFED570A9FED570ADB
:1011C000FFF78CFE4E4800684E4991ED003ADFED86
:1011D0004E2A9FED532ADFED531A9FED531ADFED90
:1011E000530A9FED4E0AFFF779FE454800684549CE
:1011F00091ED003ADFED4E2A9FED492ADFED491AC5
:101200009FED491ADFED490A9FED440AFFF766FE9C
:101210004FF49670FFF74CFF39480068394991ED5B
:10122000003ADFED432A9FED392ADFED421A9FEDA8
:10123000421ADFED420A9FED390AFFF74FFE4FF4E5
:101240009670FFF735FF2E4800682E4991ED003A61
:10125000DFED372A9FED3A2ADFED321A9FED321A81
:10126000DFED320A9FED370AFFF738FE4FF4967034
:10127000FFF71EFF22480068224991ED003ADFED9A
:10128000222A9FED2F2ADFED271A9FED271ADFED87
:10129000270A9FED2C0AFFF721FE4FF49670FFF707
:1012A00007FF0520174991ED003ADFED172A9FED62
:1012B000172ADFED201A9FED201ADFED200A9FED9F
:1012C000170AFFF70BFE1E20FFF7F2FE05200D495F
:1012D00091ED003ADFED0D2A9FED0C2ADFED0C1A9F
:1012E0009FED0C1ADFED0C0A9FED0C0AFFF7F6FDDF
:1012F0004FF49670FFF7DCFE00BFFEE73AE7000010
:10130000240000202000002000C0C1440080BB4415
:101310000000E14400C0A84400806D4400009644F1
:1013200000001B450000B94400001B4400C0874476
:101330000000AA44008009450080544400802244F3
:10134000000016440080D44410B588B00446012142
:101350000846FFF799F801211020FFF7B5F807229A
:1013600009212B48FFF703F807220A212848FEF736
:10137000FEFF4FF4C060069002208DF81C008DF82F
:101380001D0000208DF81E0001208DF81F0006A909
:101390001F48FEF7A4FF02940020ADF80C00ADF842
:1013A0000E00ADF81000ADF814000C20ADF81200DE
:1013B00002A91848FFF7DCFC01211648FFF7A6FC3C
:1013C000012240F225511348FFF7ACFC4FF4A06016
:1013D000FFF74EF825208DF8040003208DF8050056
:1013E00000208DF8060001208DF8070001A8FFF706
:1013F00003F842F2CF016320FFF7D4FA0020064938
:10140000088000210548FFF76CFB08B010BD000004
:101410000000024000100140400000200014004085
:101420004FF04070E1EE100A704700004C140008C5
:101430000000002044000000C401000890140008CF
:101440004400002064060000E001000800000000E5
:10145000000000000000964400806D4400C0A844D5
:101460000000E1440080BB440080BB4400004842CF
:101470000A0000000000000001020304010203044E
:10148000060708090000000000000000000000003E
:040000050800018965
:00000001FF
